{
  "_format": "hh-sol-artifact-1",
  "contractName": "Flippando",
  "sourceName": "contracts/Flippando.sol",
  "abi": [
    {
      "inputs": [
        {
          "internalType": "address",
          "name": "_flipAddress",
          "type": "address"
        },
        {
          "internalType": "address",
          "name": "_flippandoBundlerAddress",
          "type": "address"
        },
        {
          "internalType": "address",
          "name": "_flippandoGameMasterAddress",
          "type": "address"
        }
      ],
      "stateMutability": "nonpayable",
      "type": "constructor"
    },
    {
      "inputs": [],
      "name": "ERC721EnumerableForbiddenBatchMint",
      "type": "error"
    },
    {
      "inputs": [
        {
          "internalType": "address",
          "name": "sender",
          "type": "address"
        },
        {
          "internalType": "uint256",
          "name": "tokenId",
          "type": "uint256"
        },
        {
          "internalType": "address",
          "name": "owner",
          "type": "address"
        }
      ],
      "name": "ERC721IncorrectOwner",
      "type": "error"
    },
    {
      "inputs": [
        {
          "internalType": "address",
          "name": "operator",
          "type": "address"
        },
        {
          "internalType": "uint256",
          "name": "tokenId",
          "type": "uint256"
        }
      ],
      "name": "ERC721InsufficientApproval",
      "type": "error"
    },
    {
      "inputs": [
        {
          "internalType": "address",
          "name": "approver",
          "type": "address"
        }
      ],
      "name": "ERC721InvalidApprover",
      "type": "error"
    },
    {
      "inputs": [
        {
          "internalType": "address",
          "name": "operator",
          "type": "address"
        }
      ],
      "name": "ERC721InvalidOperator",
      "type": "error"
    },
    {
      "inputs": [
        {
          "internalType": "address",
          "name": "owner",
          "type": "address"
        }
      ],
      "name": "ERC721InvalidOwner",
      "type": "error"
    },
    {
      "inputs": [
        {
          "internalType": "address",
          "name": "receiver",
          "type": "address"
        }
      ],
      "name": "ERC721InvalidReceiver",
      "type": "error"
    },
    {
      "inputs": [
        {
          "internalType": "address",
          "name": "sender",
          "type": "address"
        }
      ],
      "name": "ERC721InvalidSender",
      "type": "error"
    },
    {
      "inputs": [
        {
          "internalType": "uint256",
          "name": "tokenId",
          "type": "uint256"
        }
      ],
      "name": "ERC721NonexistentToken",
      "type": "error"
    },
    {
      "inputs": [
        {
          "internalType": "address",
          "name": "owner",
          "type": "address"
        },
        {
          "internalType": "uint256",
          "name": "index",
          "type": "uint256"
        }
      ],
      "name": "ERC721OutOfBoundsIndex",
      "type": "error"
    },
    {
      "inputs": [],
      "name": "EnforcedPause",
      "type": "error"
    },
    {
      "inputs": [],
      "name": "ExpectedPause",
      "type": "error"
    },
    {
      "inputs": [],
      "name": "ReentrancyGuardReentrantCall",
      "type": "error"
    },
    {
      "anonymous": false,
      "inputs": [
        {
          "indexed": true,
          "internalType": "address",
          "name": "owner",
          "type": "address"
        },
        {
          "indexed": true,
          "internalType": "address",
          "name": "approved",
          "type": "address"
        },
        {
          "indexed": true,
          "internalType": "uint256",
          "name": "tokenId",
          "type": "uint256"
        }
      ],
      "name": "Approval",
      "type": "event"
    },
    {
      "anonymous": false,
      "inputs": [
        {
          "indexed": true,
          "internalType": "address",
          "name": "owner",
          "type": "address"
        },
        {
          "indexed": true,
          "internalType": "address",
          "name": "operator",
          "type": "address"
        },
        {
          "indexed": false,
          "internalType": "bool",
          "name": "approved",
          "type": "bool"
        }
      ],
      "name": "ApprovalForAll",
      "type": "event"
    },
    {
      "anonymous": false,
      "inputs": [
        {
          "indexed": false,
          "internalType": "uint256",
          "name": "artworkId",
          "type": "uint256"
        },
        {
          "indexed": false,
          "internalType": "string",
          "name": "bTokenIds",
          "type": "string"
        },
        {
          "indexed": false,
          "internalType": "string",
          "name": "imageUrl",
          "type": "string"
        },
        {
          "indexed": false,
          "internalType": "address",
          "name": "newOwner",
          "type": "address"
        }
      ],
      "name": "ArtworkCreated",
      "type": "event"
    },
    {
      "anonymous": false,
      "inputs": [
        {
          "indexed": false,
          "internalType": "uint256",
          "name": "_fromTokenId",
          "type": "uint256"
        },
        {
          "indexed": false,
          "internalType": "uint256",
          "name": "_toTokenId",
          "type": "uint256"
        }
      ],
      "name": "BatchMetadataUpdate",
      "type": "event"
    },
    {
      "anonymous": false,
      "inputs": [
        {
          "indexed": false,
          "internalType": "string",
          "name": "id",
          "type": "string"
        },
        {
          "components": [
            {
              "internalType": "uint8[]",
              "name": "board",
              "type": "uint8[]"
            },
            {
              "internalType": "uint8[]",
              "name": "solvedBoard",
              "type": "uint8[]"
            },
            {
              "internalType": "uint256",
              "name": "gameLevel",
              "type": "uint256"
            },
            {
              "internalType": "uint256",
              "name": "gameTileType",
              "type": "uint256"
            },
            {
              "internalType": "uint256",
              "name": "gameType",
              "type": "uint256"
            },
            {
              "internalType": "address",
              "name": "player",
              "type": "address"
            },
            {
              "internalType": "string",
              "name": "id",
              "type": "string"
            },
            {
              "internalType": "uint256[]",
              "name": "gameTiles",
              "type": "uint256[]"
            }
          ],
          "indexed": false,
          "internalType": "struct Flippando.Game",
          "name": "game",
          "type": "tuple"
        },
        {
          "indexed": true,
          "internalType": "address",
          "name": "player",
          "type": "address"
        }
      ],
      "name": "GameInitialized",
      "type": "event"
    },
    {
      "anonymous": false,
      "inputs": [
        {
          "indexed": false,
          "internalType": "string",
          "name": "id",
          "type": "string"
        },
        {
          "components": [
            {
              "internalType": "uint8[]",
              "name": "board",
              "type": "uint8[]"
            },
            {
              "internalType": "uint8[]",
              "name": "solvedBoard",
              "type": "uint8[]"
            },
            {
              "internalType": "uint256",
              "name": "gameLevel",
              "type": "uint256"
            },
            {
              "internalType": "uint256",
              "name": "gameTileType",
              "type": "uint256"
            },
            {
              "internalType": "uint256",
              "name": "gameType",
              "type": "uint256"
            },
            {
              "internalType": "address",
              "name": "player",
              "type": "address"
            },
            {
              "internalType": "string",
              "name": "id",
              "type": "string"
            },
            {
              "internalType": "uint256[]",
              "name": "gameTiles",
              "type": "uint256[]"
            }
          ],
          "indexed": false,
          "internalType": "struct Flippando.Game",
          "name": "game",
          "type": "tuple"
        }
      ],
      "name": "GameSolved",
      "type": "event"
    },
    {
      "anonymous": false,
      "inputs": [
        {
          "indexed": true,
          "internalType": "string",
          "name": "id",
          "type": "string"
        },
        {
          "indexed": false,
          "internalType": "uint8[]",
          "name": "solvedBoard",
          "type": "uint8[]"
        },
        {
          "indexed": false,
          "internalType": "uint256",
          "name": "gameTileType",
          "type": "uint256"
        },
        {
          "indexed": false,
          "internalType": "uint256[]",
          "name": "gametiles",
          "type": "uint256[]"
        },
        {
          "indexed": false,
          "internalType": "uint8[2]",
          "name": "positions",
          "type": "uint8[2]"
        }
      ],
      "name": "GameState",
      "type": "event"
    },
    {
      "anonymous": false,
      "inputs": [
        {
          "indexed": false,
          "internalType": "uint256",
          "name": "_tokenId",
          "type": "uint256"
        }
      ],
      "name": "MetadataUpdate",
      "type": "event"
    },
    {
      "anonymous": false,
      "inputs": [
        {
          "indexed": false,
          "internalType": "string",
          "name": "id",
          "type": "string"
        },
        {
          "indexed": false,
          "internalType": "uint256",
          "name": "tokenId",
          "type": "uint256"
        }
      ],
      "name": "NFTCreated",
      "type": "event"
    },
    {
      "anonymous": false,
      "inputs": [
        {
          "indexed": false,
          "internalType": "address",
          "name": "account",
          "type": "address"
        }
      ],
      "name": "Paused",
      "type": "event"
    },
    {
      "anonymous": false,
      "inputs": [
        {
          "indexed": true,
          "internalType": "address",
          "name": "from",
          "type": "address"
        },
        {
          "indexed": true,
          "internalType": "address",
          "name": "to",
          "type": "address"
        },
        {
          "indexed": true,
          "internalType": "uint256",
          "name": "tokenId",
          "type": "uint256"
        }
      ],
      "name": "Transfer",
      "type": "event"
    },
    {
      "anonymous": false,
      "inputs": [
        {
          "indexed": false,
          "internalType": "address",
          "name": "account",
          "type": "address"
        }
      ],
      "name": "Unpaused",
      "type": "event"
    },
    {
      "inputs": [
        {
          "internalType": "address",
          "name": "to",
          "type": "address"
        },
        {
          "internalType": "uint256",
          "name": "tokenId",
          "type": "uint256"
        }
      ],
      "name": "approve",
      "outputs": [],
      "stateMutability": "nonpayable",
      "type": "function"
    },
    {
      "inputs": [
        {
          "internalType": "address",
          "name": "owner",
          "type": "address"
        }
      ],
      "name": "balanceOf",
      "outputs": [
        {
          "internalType": "uint256",
          "name": "",
          "type": "uint256"
        }
      ],
      "stateMutability": "view",
      "type": "function"
    },
    {
      "inputs": [
        {
          "internalType": "uint256",
          "name": "tokenId",
          "type": "uint256"
        }
      ],
      "name": "bridgeFLIPBB",
      "outputs": [],
      "stateMutability": "nonpayable",
      "type": "function"
    },
    {
      "inputs": [
        {
          "internalType": "string",
          "name": "id",
          "type": "string"
        },
        {
          "internalType": "string",
          "name": "imageUrl",
          "type": "string"
        }
      ],
      "name": "createNFT",
      "outputs": [],
      "stateMutability": "nonpayable",
      "type": "function"
    },
    {
      "inputs": [],
      "name": "destinationContract",
      "outputs": [
        {
          "internalType": "address",
          "name": "",
          "type": "address"
        }
      ],
      "stateMutability": "view",
      "type": "function"
    },
    {
      "inputs": [],
      "name": "destinationDomain",
      "outputs": [
        {
          "internalType": "uint32",
          "name": "",
          "type": "uint32"
        }
      ],
      "stateMutability": "view",
      "type": "function"
    },
    {
      "inputs": [
        {
          "internalType": "string",
          "name": "id",
          "type": "string"
        },
        {
          "internalType": "uint32[2]",
          "name": "boardPositions",
          "type": "uint32[2]"
        }
      ],
      "name": "flipTiles",
      "outputs": [],
      "stateMutability": "nonpayable",
      "type": "function"
    },
    {
      "inputs": [],
      "name": "flipnd",
      "outputs": [
        {
          "internalType": "contract IFLIPND",
          "name": "",
          "type": "address"
        }
      ],
      "stateMutability": "view",
      "type": "function"
    },
    {
      "inputs": [],
      "name": "flippandoBundler",
      "outputs": [
        {
          "internalType": "contract IFLIPPANDOBUNDLER",
          "name": "",
          "type": "address"
        }
      ],
      "stateMutability": "view",
      "type": "function"
    },
    {
      "inputs": [],
      "name": "flippandoGameMaster",
      "outputs": [
        {
          "internalType": "contract IFLIPPANDOGAMEMASTER",
          "name": "",
          "type": "address"
        }
      ],
      "stateMutability": "view",
      "type": "function"
    },
    {
      "inputs": [
        {
          "internalType": "uint256",
          "name": "",
          "type": "uint256"
        }
      ],
      "name": "gameIds",
      "outputs": [
        {
          "internalType": "string",
          "name": "",
          "type": "string"
        }
      ],
      "stateMutability": "view",
      "type": "function"
    },
    {
      "inputs": [
        {
          "internalType": "string",
          "name": "",
          "type": "string"
        }
      ],
      "name": "games",
      "outputs": [
        {
          "internalType": "uint256",
          "name": "gameLevel",
          "type": "uint256"
        },
        {
          "internalType": "uint256",
          "name": "gameTileType",
          "type": "uint256"
        },
        {
          "internalType": "uint256",
          "name": "gameType",
          "type": "uint256"
        },
        {
          "internalType": "address",
          "name": "player",
          "type": "address"
        },
        {
          "internalType": "string",
          "name": "id",
          "type": "string"
        }
      ],
      "stateMutability": "view",
      "type": "function"
    },
    {
      "inputs": [
        {
          "internalType": "address",
          "name": "playerAddress",
          "type": "address"
        },
        {
          "internalType": "uint256",
          "name": "page",
          "type": "uint256"
        },
        {
          "internalType": "uint256",
          "name": "itemsPerPage",
          "type": "uint256"
        }
      ],
      "name": "getAllBasicTokensForPlayer",
      "outputs": [
        {
          "components": [
            {
              "internalType": "uint256[]",
              "name": "items",
              "type": "uint256[]"
            },
            {
              "internalType": "uint256",
              "name": "totalItems",
              "type": "uint256"
            }
          ],
          "internalType": "struct Flippando.PaginatedResponse",
          "name": "",
          "type": "tuple"
        }
      ],
      "stateMutability": "view",
      "type": "function"
    },
    {
      "inputs": [
        {
          "internalType": "uint256",
          "name": "tokenId",
          "type": "uint256"
        }
      ],
      "name": "getApproved",
      "outputs": [
        {
          "internalType": "address",
          "name": "",
          "type": "address"
        }
      ],
      "stateMutability": "view",
      "type": "function"
    },
    {
      "inputs": [
        {
          "internalType": "string",
          "name": "gameId",
          "type": "string"
        }
      ],
      "name": "getGameState",
      "outputs": [
        {
          "components": [
            {
              "internalType": "uint8[]",
              "name": "board",
              "type": "uint8[]"
            },
            {
              "internalType": "uint8[]",
              "name": "solvedBoard",
              "type": "uint8[]"
            },
            {
              "internalType": "uint256",
              "name": "gameLevel",
              "type": "uint256"
            },
            {
              "internalType": "uint256",
              "name": "gameTileType",
              "type": "uint256"
            },
            {
              "internalType": "uint256",
              "name": "gameType",
              "type": "uint256"
            },
            {
              "internalType": "address",
              "name": "player",
              "type": "address"
            },
            {
              "internalType": "string",
              "name": "id",
              "type": "string"
            },
            {
              "internalType": "uint256[]",
              "name": "gameTiles",
              "type": "uint256[]"
            }
          ],
          "internalType": "struct Flippando.Game",
          "name": "",
          "type": "tuple"
        }
      ],
      "stateMutability": "view",
      "type": "function"
    },
    {
      "inputs": [
        {
          "internalType": "address",
          "name": "playerAddress",
          "type": "address"
        }
      ],
      "name": "getStoredGamesByPlayer",
      "outputs": [
        {
          "components": [
            {
              "internalType": "uint8[]",
              "name": "board",
              "type": "uint8[]"
            },
            {
              "internalType": "uint8[]",
              "name": "solvedBoard",
              "type": "uint8[]"
            },
            {
              "internalType": "uint256",
              "name": "gameLevel",
              "type": "uint256"
            },
            {
              "internalType": "uint256",
              "name": "gameTileType",
              "type": "uint256"
            },
            {
              "internalType": "uint256",
              "name": "gameType",
              "type": "uint256"
            },
            {
              "internalType": "address",
              "name": "player",
              "type": "address"
            },
            {
              "internalType": "string",
              "name": "id",
              "type": "string"
            },
            {
              "internalType": "uint256[]",
              "name": "gameTiles",
              "type": "uint256[]"
            }
          ],
          "internalType": "struct Flippando.Game[]",
          "name": "",
          "type": "tuple[]"
        }
      ],
      "stateMutability": "view",
      "type": "function"
    },
    {
      "inputs": [
        {
          "internalType": "uint256",
          "name": "page",
          "type": "uint256"
        },
        {
          "internalType": "uint256",
          "name": "itemsPerPage",
          "type": "uint256"
        }
      ],
      "name": "getUserNFTs",
      "outputs": [
        {
          "components": [
            {
              "internalType": "uint256[]",
              "name": "items",
              "type": "uint256[]"
            },
            {
              "internalType": "uint256",
              "name": "totalItems",
              "type": "uint256"
            }
          ],
          "internalType": "struct Flippando.PaginatedResponse",
          "name": "",
          "type": "tuple"
        }
      ],
      "stateMutability": "view",
      "type": "function"
    },
    {
      "inputs": [
        {
          "internalType": "uint32",
          "name": "originDomain",
          "type": "uint32"
        },
        {
          "internalType": "bytes32",
          "name": "sender",
          "type": "bytes32"
        },
        {
          "internalType": "bytes",
          "name": "message",
          "type": "bytes"
        }
      ],
      "name": "handle",
      "outputs": [],
      "stateMutability": "payable",
      "type": "function"
    },
    {
      "inputs": [],
      "name": "hyperlaneDeployer",
      "outputs": [
        {
          "internalType": "address",
          "name": "",
          "type": "address"
        }
      ],
      "stateMutability": "view",
      "type": "function"
    },
    {
      "inputs": [
        {
          "internalType": "uint256",
          "name": "",
          "type": "uint256"
        }
      ],
      "name": "inTransit",
      "outputs": [
        {
          "internalType": "bool",
          "name": "",
          "type": "bool"
        }
      ],
      "stateMutability": "view",
      "type": "function"
    },
    {
      "inputs": [
        {
          "internalType": "string",
          "name": "id",
          "type": "string"
        },
        {
          "internalType": "uint256",
          "name": "boardSize",
          "type": "uint256"
        },
        {
          "internalType": "uint256",
          "name": "gameTileType",
          "type": "uint256"
        },
        {
          "internalType": "uint256",
          "name": "tileRange",
          "type": "uint256"
        },
        {
          "internalType": "uint256",
          "name": "gameType",
          "type": "uint256"
        },
        {
          "internalType": "address",
          "name": "gamePlayer",
          "type": "address"
        }
      ],
      "name": "initializeGame",
      "outputs": [],
      "stateMutability": "nonpayable",
      "type": "function"
    },
    {
      "inputs": [
        {
          "internalType": "address",
          "name": "owner",
          "type": "address"
        },
        {
          "internalType": "address",
          "name": "operator",
          "type": "address"
        }
      ],
      "name": "isApprovedForAll",
      "outputs": [
        {
          "internalType": "bool",
          "name": "",
          "type": "bool"
        }
      ],
      "stateMutability": "view",
      "type": "function"
    },
    {
      "inputs": [],
      "name": "mailbox",
      "outputs": [
        {
          "internalType": "contract IHyperlaneMailbox",
          "name": "",
          "type": "address"
        }
      ],
      "stateMutability": "view",
      "type": "function"
    },
    {
      "inputs": [
        {
          "internalType": "uint256",
          "name": "boardWidth",
          "type": "uint256"
        },
        {
          "internalType": "uint256",
          "name": "boardHeight",
          "type": "uint256"
        },
        {
          "internalType": "uint256[]",
          "name": "tokenIds",
          "type": "uint256[]"
        },
        {
          "internalType": "string",
          "name": "imageUrl",
          "type": "string"
        },
        {
          "internalType": "string",
          "name": "metadataUrl",
          "type": "string"
        }
      ],
      "name": "makeArt",
      "outputs": [
        {
          "internalType": "uint256",
          "name": "tokenId",
          "type": "uint256"
        }
      ],
      "stateMutability": "nonpayable",
      "type": "function"
    },
    {
      "inputs": [],
      "name": "name",
      "outputs": [
        {
          "internalType": "string",
          "name": "",
          "type": "string"
        }
      ],
      "stateMutability": "view",
      "type": "function"
    },
    {
      "inputs": [
        {
          "internalType": "uint256",
          "name": "tokenId",
          "type": "uint256"
        }
      ],
      "name": "ownerOf",
      "outputs": [
        {
          "internalType": "address",
          "name": "",
          "type": "address"
        }
      ],
      "stateMutability": "view",
      "type": "function"
    },
    {
      "inputs": [],
      "name": "pause",
      "outputs": [],
      "stateMutability": "nonpayable",
      "type": "function"
    },
    {
      "inputs": [],
      "name": "pauseAllContracts",
      "outputs": [],
      "stateMutability": "nonpayable",
      "type": "function"
    },
    {
      "inputs": [],
      "name": "paused",
      "outputs": [
        {
          "internalType": "bool",
          "name": "",
          "type": "bool"
        }
      ],
      "stateMutability": "view",
      "type": "function"
    },
    {
      "inputs": [
        {
          "internalType": "address",
          "name": "from",
          "type": "address"
        },
        {
          "internalType": "address",
          "name": "to",
          "type": "address"
        },
        {
          "internalType": "uint256",
          "name": "tokenId",
          "type": "uint256"
        }
      ],
      "name": "safeTransferFrom",
      "outputs": [],
      "stateMutability": "nonpayable",
      "type": "function"
    },
    {
      "inputs": [
        {
          "internalType": "address",
          "name": "from",
          "type": "address"
        },
        {
          "internalType": "address",
          "name": "to",
          "type": "address"
        },
        {
          "internalType": "uint256",
          "name": "tokenId",
          "type": "uint256"
        },
        {
          "internalType": "bytes",
          "name": "data",
          "type": "bytes"
        }
      ],
      "name": "safeTransferFrom",
      "outputs": [],
      "stateMutability": "nonpayable",
      "type": "function"
    },
    {
      "inputs": [
        {
          "internalType": "address",
          "name": "operator",
          "type": "address"
        },
        {
          "internalType": "bool",
          "name": "approved",
          "type": "bool"
        }
      ],
      "name": "setApprovalForAll",
      "outputs": [],
      "stateMutability": "nonpayable",
      "type": "function"
    },
    {
      "inputs": [
        {
          "internalType": "address",
          "name": "_mailbox",
          "type": "address"
        },
        {
          "internalType": "address",
          "name": "_destinationContract",
          "type": "address"
        },
        {
          "internalType": "uint32",
          "name": "_destinationDomain",
          "type": "uint32"
        }
      ],
      "name": "setHyperlaneConfig",
      "outputs": [],
      "stateMutability": "nonpayable",
      "type": "function"
    },
    {
      "inputs": [
        {
          "internalType": "address",
          "name": "newDeployer",
          "type": "address"
        }
      ],
      "name": "setHyperlaneDeployer",
      "outputs": [],
      "stateMutability": "nonpayable",
      "type": "function"
    },
    {
      "inputs": [
        {
          "internalType": "uint256",
          "name": "status",
          "type": "uint256"
        }
      ],
      "name": "setTransferNFTStatus",
      "outputs": [],
      "stateMutability": "nonpayable",
      "type": "function"
    },
    {
      "inputs": [
        {
          "internalType": "bytes4",
          "name": "interfaceId",
          "type": "bytes4"
        }
      ],
      "name": "supportsInterface",
      "outputs": [
        {
          "internalType": "bool",
          "name": "",
          "type": "bool"
        }
      ],
      "stateMutability": "view",
      "type": "function"
    },
    {
      "inputs": [],
      "name": "symbol",
      "outputs": [
        {
          "internalType": "string",
          "name": "",
          "type": "string"
        }
      ],
      "stateMutability": "view",
      "type": "function"
    },
    {
      "inputs": [
        {
          "internalType": "uint256",
          "name": "index",
          "type": "uint256"
        }
      ],
      "name": "tokenByIndex",
      "outputs": [
        {
          "internalType": "uint256",
          "name": "",
          "type": "uint256"
        }
      ],
      "stateMutability": "view",
      "type": "function"
    },
    {
      "inputs": [],
      "name": "tokenIdCounter",
      "outputs": [
        {
          "internalType": "uint256",
          "name": "",
          "type": "uint256"
        }
      ],
      "stateMutability": "view",
      "type": "function"
    },
    {
      "inputs": [
        {
          "internalType": "address",
          "name": "owner",
          "type": "address"
        },
        {
          "internalType": "uint256",
          "name": "index",
          "type": "uint256"
        }
      ],
      "name": "tokenOfOwnerByIndex",
      "outputs": [
        {
          "internalType": "uint256",
          "name": "",
          "type": "uint256"
        }
      ],
      "stateMutability": "view",
      "type": "function"
    },
    {
      "inputs": [
        {
          "internalType": "uint256",
          "name": "tokenId",
          "type": "uint256"
        }
      ],
      "name": "tokenURI",
      "outputs": [
        {
          "internalType": "string",
          "name": "",
          "type": "string"
        }
      ],
      "stateMutability": "view",
      "type": "function"
    },
    {
      "inputs": [],
      "name": "totalSupply",
      "outputs": [
        {
          "internalType": "uint256",
          "name": "",
          "type": "uint256"
        }
      ],
      "stateMutability": "view",
      "type": "function"
    },
    {
      "inputs": [
        {
          "internalType": "address",
          "name": "from",
          "type": "address"
        },
        {
          "internalType": "address",
          "name": "to",
          "type": "address"
        },
        {
          "internalType": "uint256",
          "name": "tokenId",
          "type": "uint256"
        }
      ],
      "name": "transferFrom",
      "outputs": [],
      "stateMutability": "nonpayable",
      "type": "function"
    },
    {
      "inputs": [],
      "name": "unpause",
      "outputs": [],
      "stateMutability": "nonpayable",
      "type": "function"
    },
    {
      "inputs": [],
      "name": "unpauseAllContracts",
      "outputs": [],
      "stateMutability": "nonpayable",
      "type": "function"
    }
  ],
  "bytecode": "0x608034620003f557601f19906001600160401b0390601f9062005c483881900383810186168301919085831184841017620003df57808492606094604052833981010312620003f55762000053816200041a565b916020936200007260406200006a8786016200041a565b94016200041a565b916200007d620003fa565b95601587527f466c697070616e646f20426173696320426f617264000000000000000000000081880152620000b1620003fa565b906006825265232624a8212160d11b81830152875198848a11620003df576000998a549960019a8b81811c91168015620003d4575b85821014620003c0579081878493116200036a575b5084908d888411600114620003015792620002f5575b5050600019600383901b1c1916908a1b178a555b8251948511620002e15788548981811c91168015620002d6575b83821014620002c25790818587969594931162000269575b5081938511600114620002045750508892620001f8575b5050600019600383901b1c191690851b1784555b600b849055600c8054601380546001600160a01b031990811633179091556001600160a81b031990911660089590951b610100600160a81b0316949094179055600d805484166001600160a01b03938416179055600e805490931691161790556012556017556040516158189081620004308239f35b0151905038806200016e565b89959392919316858b52838b20938b905b8282106200024f575050841162000235575b505050811b01845562000182565b015160001960f88460031b161c1916905538808062000227565b8484015186558b9790950194938401939081019062000215565b909192939450898b52828b208580880160051c820192858910620002b8575b9188978d9297969594930160051c01915b828110620002a957505062000157565b8d81558897508c910162000299565b9250819262000288565b634e487b7160e01b8b52602260045260248bfd5b90607f16906200013f565b634e487b7160e01b8a52604160045260248afd5b01519050388062000111565b9190858e9516838052878420935b888282106200034a575050841162000330575b505050811b018a5562000125565b015160001960f88460031b161c1916905538808062000322565b91929395968291958786015181550195019301908e95949392916200030f565b9091508c8052848d208780850160051c820192878610620003b6575b859493910160051c909101908d908f5b838210620003a757505050620000fb565b81558594508e91018f62000396565b9250819262000386565b634e487b7160e01b8d52602260045260248dfd5b90607f1690620000e6565b634e487b7160e01b600052604160045260246000fd5b600080fd5b60408051919082016001600160401b03811183821017620003df57604052565b51906001600160a01b0382168203620003f55756fe608080604052600436101561001357600080fd5b600090813560e01c90816301ffc9a714613869575080630480da6f14612a2c57806306fdde0314612981578063081812fc14612944578063095ea7b31461283957806318160ddd1461281b57806323b872dd146128035780632858c55a146127dc5780632f745c59146127b45780633f4ba83a1461274e57806342842e0e1461272657806343a2d4b0146126f75780634a1c88de146124c25780634d8017b1146123945780634f6ccce71461237557806356d5d475146122815780635c109570146122545780635c975abb146122315780636352211e1461220057806368613d1714611b705780636d20931a14611ab857806370a0823114611a8c57806375bd686314611a635780637c205cc4146119695780638456cb59146119015780638534afbc146118d1578063879c69511461132d5780638bc304451461113d57806394c97a0d1461104857806395d89b4114610f6557806395eb8b06146109a657806398bdf6f5146109885780639ce8ff05146108df578063a22cb46514610812578063ad0deb891461071c578063b3e90c38146105bc578063b88d4fde14610555578063c87b56dd14610535578063cb5e19781461050c578063cd4893b01461035c578063d5438eae14610333578063d82c13f0146102b8578063e985e9c514610264578063ec16207f1461023b5763f587d8961461021057600080fd5b346102385780600319360112610238576011546040516001600160a01b039091168152602090f35b80fd5b5034610238578060031936011261023857600e546040516001600160a01b039091168152602090f35b50346102385760403660031901126102385761027e613a48565b6040610288613a5e565b9260018060a01b0380931681526005602052209116600052602052602060ff604060002054166040519015158152f35b50346102385760203660031901126102385760043560155481101561032f576102e090613ca5565b91909161031b5760405161031790610303816102fc8187613bf8565b038261396f565b604051918291602083526020830190613a23565b0390f35b634e487b7160e01b81526004819052602490fd5b5080fd5b5034610238578060031936011261023857600f546040516001600160a01b039091168152602090f35b5034610238576020908160031936011261023857600435906001600160401b03821161023857506103919036906004016139e2565b9061039a61494a565b50604051918051906103d6838201926103b4818786613a00565b8501601481526005868660018060a01b03988994030190200154161515613d41565b836005604051858185516103eb81838a613a00565b8101601481520301902001541633036104c75761041a836007936104ae93604051938492839251928391613a00565b810160148152030190206040519461043186613938565b604051610442816102fc8186613e33565b8652604051610458816102fc8160018701613e33565b8587015260028201546040870152600382015460608701526004820154608087015260058201541660a0860152604051610499816102fc8160068601613bf8565b60c08601526102fc6040518094819301613df5565b60e0830152610317604051928284938452830190613b14565b60405162461bcd60e51b815260048101849052601760248201527f596f7520646f6e2774206f776e20746869732067616d650000000000000000006044820152606490fd5b5034610238578060031936011261023857600d546040516001600160a01b039091168152602090f35b5034610238576020366003190112610238576103176103036004356157a7565b50346102385760803660031901126102385761056f613a48565b610577613a5e565b606435916001600160401b0383116105b857366023840112156105b8576105ab6105b59336906024816004013591016139ab565b9160443591614cc3565b80f35b8380fd5b50346102385780600319360112610238576013546001600160a01b03906105e69082163314614853565b600c549060ff82161561070a5780839260ff198116600c557f5db9ee0a495bf2e6ff9c91a7834c1ba4fdd244a5e8aa4e537bd38aeae4b073aa6020604051338152a160081c1690813b156106ce57604051838160048183631fa5d41d60e11b978883525af19081156106e65784916106f6575b505080600d5416803b156106f1578380916004604051809481938883525af19081156106e65784916106d2575b5050600e541690813b156106ce57829160048392604051948593849283525af180156106c3576106b35750f35b6106bc90613925565b6102385780f35b6040513d84823e3d90fd5b5050fd5b6106db90613925565b6106ce578238610686565b6040513d86823e3d90fd5b505050fd5b6106ff90613925565b6106ce578238610659565b604051638dfc202b60e01b8152600490fd5b503461023857606036600319011261023857610736613a48565b61073e613a5e565b906044359063ffffffff8216820361080d576011546001600160a01b039190821633036107a25781166001600160601b0360a01b600f541617600f556010549163ffffffff60a01b9060a01b169216906001600160401b0360c01b16171760105580f35b60405162461bcd60e51b815260206004820152603b60248201527f4f6e6c79207468652048797065726c616e65206465706c6f79657220636f6e7460448201527f726163742063616e2063616c6c20746869732066756e6374696f6e00000000006064820152608490fd5b600080fd5b50346102385760403660031901126102385761082c613a48565b602435908115158092036108db57601754156108c2575b6001600160a01b03169081156108a957336000526005602052604060002082600052602052604060002060ff1981541660ff83161790556040519081527f17307eab39ab6107e8899845ad3d59bd9653f200f220920489ca2b5937696c3160203392a380f35b604051630b61174360e31b815260048101839052602490fd5b6108d66001600160a01b0382163014614473565b610843565b8280fd5b5034610238576020366003190112610238576108f9613a48565b6013546001600160a01b0391906109139083163314614853565b168015610930576001600160601b0360a01b601154161760115580f35b60405162461bcd60e51b815260206004820152602a60248201527f4e65772068797065726c614465706c6f79657220616464726573732063616e6e6044820152696f74206265207a65726f60b01b6064820152608490fd5b50346102385780600319360112610238576020601254604051908152f35b50346102385760c0366003190112610238576004356001600160401b03811161032f576109d79036906004016139e2565b60a4356001600160a01b038116810361080d57600e546001600160a01b03163303610f2057610a04614e12565b610a0c614e30565b610a1a60243560021c6149b8565b83805b60243560021c8210610e25575050610a366024356149b8565b90610a426024356149b8565b60405192610a4f84613938565b8352602083015260243560408301526044356060830152608435608083015260018060a01b03831660a08301528360c083015260e08201526040516020818551610a9c8183858a01613a00565b8101601481520301902081518051906001600160401b038211610d8357602090610ac68385614b21565b01908287526020872090875b8160051c8110610de65750601f198116808203610d97575b5050505060208201518051906001600160401b038211610d8357602090610b148360018601614b21565b01906001830187526020872090875b8160051c8110610d445750601f198116808203610cf3575b50505050600760e0916040840151600282015560608401516003820155608084015160048201556005810160018060a01b0360a0860151166001600160601b0360a01b825416179055610b9560c085015160068301614bbe565b01910151908151906001600160401b038211610cdf57600160401b92838311610cc9576020908254848455808510610cac575b500190865260208620865b838110610c98575050505060155490811015610c8457806001610bf99201601555613ca5565b610c705790610c29837fd7d48c81120f99c14d202d05fe5a439e7dc3366454dcb271ecef7f2aa2fffd4d93614bbe565b6040516020818551610c3e8183858a01613a00565b6014908201908152030190206040516001600160a01b03909216938291610c6591836143a0565b0390a26001600b5580f35b634e487b7160e01b84526004849052602484fd5b634e487b7160e01b84526041600452602484fd5b600190602084519401938184015501610bd3565b610cc3908460005285846000209182019101614ade565b38610bc8565b634e487b7160e01b600052604160045260246000fd5b634e487b7160e01b86526041600452602486fd5b928893895b8184038110610d145750505060051c0155600760e03880610b3b565b9091946020610d3a6001928460ff8a5116919060ff809160031b9316831b921b19161790565b9601929101610cf8565b88895b60208110610d5c575083820155600101610b23565b855190959160019160209160ff60038a901b81811b199092169216901b1792019501610d47565b634e487b7160e01b87526041600452602487fd5b928893895b8184038110610db65750505060051c015538808080610aea565b9091946020610ddc6001928460ff8a5116919060ff809160031b9316831b921b19161790565b9601929101610d9c565b88895b60208110610dfe575083820155600101610ad2565b855190959160019160209160ff60038a901b81811b199092169216901b1792019501610de9565b610e975a60405190610e8b60d460208401926001600160601b03198a60601b168452436034860152426054860152446074860152846094888d610e718151809260208688019101613a00565b83019182015260b49283820152039081018552018361396f565b60643591519020613da3565b865b838110610edf575060018101809111610ecb57600191610ec391610ebd858761498a565b52613de6565b910190610a1d565b634e487b7160e01b87526011600452602487fd5b81610eea828761498a565b5114610eff575b610efa90613de6565b610e99565b50600181018111610ecb57610f1a9060016064359101613da3565b86610ef1565b60405162461bcd60e51b815260206004820152601c60248201527f43616c6c6572206973206e6f74207468652047616d654d6173746572000000006044820152606490fd5b5034610238578060031936011261023857604051600060018260015492610f8b84613bbe565b9283835260209485600182169182600014611028575050600114610fcb575b50610fb79250038361396f565b610317604051928284938452830190613a23565b84915060016000527fb10e2d527612073b26eecdfd717e6a320cf44b4afac2b0732d9fcbe2b7fa0cf6906000915b858310611010575050610fb7935082010185610faa565b80548389018501528794508693909201918101610ff9565b60ff191685820152610fb795151560051b8501019250879150610faa9050565b503461023857604036600319011261023857600435906024359061106a61499e565b5061107433614b85565b90600019840190848211611129575061109a611093846110ab93614a43565b9384613dc3565b8280821091180282189315156149ea565b80611119575b6110c36110be8385614a36565b6149b8565b91805b8481106110f2576103178484604051916110df8361390a565b8252602082015260405191829182613b99565b806110ff600192336147f3565b61111261110c8584614a36565b8761498a565b52016110c6565b611124818310614a56565b6110b1565b634e487b7160e01b81526011600452602490fd5b503461023857602090816003193601126102385760043561115d81614ef4565b6001600160a01b03919033908316036112fc57829361117b826157a7565b600c54604051638ef4c80760e01b8152336004820152602481018590529192919060081c85168282604481845afa9182156112bb5787926112ca575b50803b156112c657604051630416f5fb60e41b8152336004820152602481018690529087908290604490829084905af19081156112bb5787916112a3575b505061122861123c936112078661545c565b604051958694339086015260408501526080606085015260a0840190613a23565b90608083015203601f19810183528261396f565b81600f54169060105491803b1561129f5761128e938580946040519687958694859363fa31de0160e01b855263ffffffff8160a01c166004860152166024840152606060448401526064830190613a23565b03925af180156106c3576106b35750f35b8480fd5b6112ac90613925565b6112b75785386111f5565b8580fd5b6040513d89823e3d90fd5b8680fd5b965090508186813d81116112f5575b6112e3818361396f565b8101031261080d5786955190386111b7565b503d6112d9565b60405162461bcd60e51b81526004810185905260096024820152682737ba1037bbb732b960b91b6044820152606490fd5b50346102385760a0366003190112610238576001600160401b036044358181116108db57366023820112156108db5780600401359061136b82613c8e565b91611379604051938461396f565b8083526024602084019160051b830101913683116112b757602401905b8282106118c1575050506064358281116105b8576113b89036906004016139e2565b916084359081116105b8576113d19036906004016139e2565b916113da614e12565b6113e2614e30565b81516113f2602435600435614a43565b03611867576040516114038161390a565b60018152605b60f81b602082015290845b83518110156116b75761143061142a828661498a565b51614ef4565b6001600160a01b03811633146116725760018060a01b03811687526005602052604087203060005260205260ff604060002054161561162157611473828661498a565b518752601660205260ff6040882054166115e8576114d8602061149f611499858961498a565b5161539c565b9560405196816114b88993518092868087019101613a00565b82016114cc82518093868085019101613a00565b0103808752018561396f565b838551806000198101116115d45788929190600019018410611592575b50600c5460081c6001600160a01b031690611510848861498a565b51823b156105b857604051620dc5fb60ec1b81526001600160a01b0392909216600483015260248201529082908290604490829084905af180156106c35761157e575b5050806115626001928661498a565b518752601660205260408720805460ff19168317905501611414565b61158790613925565b6112b7578538611553565b9094506115cd6022604051836115b2829551809260208086019101613a00565b810161016160f51b602082015203600281018452018261396f565b93386114f5565b634e487b7160e01b89526011600452602489fd5b60405162461bcd60e51b8152602060048201526011602482015270139195081a5cc81a5b881d1c985b9cda5d607a1b6044820152606490fd5b60405162461bcd60e51b8152602060048201526024808201527f4e4654206973206e6f7420617070726f76656420666f722074686520636f6e746044820152631c9858dd60e21b6064820152608490fd5b60405162461bcd60e51b815260206004820152601760248201527f43616e27742075736520796f7572206f776e204e4654730000000000000000006044820152606490fd5b50908480916020611761876116f76021604051866116de8298518092898086019101613a00565b8101605d60f81b8782015203600181018752018561396f565b60018060a01b03600d54169060405195868094819363df00c1e760e01b83526004356004840152602435602484015260c0604484015261174f61173d60c485018b613a23565b8481036003190160648601528d613a23565b83810360031901608485015290613a23565b3360a483015203925af191821561185c578392611828575b50825b85518110156117bf57806117926001928861498a565b518552601660205260408520805460ff191690556117b96117b3828961498a565b5161545c565b0161177c565b6020837fbe76c54c94d9cc5b999f138ea0eb86c51ed410c818a029b13836186681550bf6611804856118128a6040519384938785526080898601526080850190613a23565b908382036040850152613a23565b3360608301520390a16001600b55604051908152f35b9091506020813d602011611854575b816118446020938361396f565b8101031261080d57519085611779565b3d9150611837565b6040513d85823e3d90fd5b60405162461bcd60e51b815260206004820152602c60248201527f4e756d626572206f6620746f6b656e496473206d757374206d6174636820746860448201526b6520626f6172642073697a6560a01b6064820152608490fd5b8135815260209182019101611396565b5034610238576020366003190112610238576118f860018060a01b03601354163314614853565b60043560175580f35b503461023857806003193601126102385761192760018060a01b03601354163314614853565b61192f614e12565b600160ff19600c541617600c557f62e78cea01bee320cd4e420270b5ea74000d11b0c9f74754ebdbfc544b05a2586020604051338152a180f35b50346102385780600319360112610238578060018060a01b0361199181601354163314614853565b80600c5460081c1690813b156106ce57604051838160048183638456cb5960e01b978883525af19081156106e6578491611a4f575b505080600d5416803b156106f1578380916004604051809481938883525af19081156106e6578491611a3b575b5050600e541690813b156106ce57829160048392604051948593849283525af180156106c357611a27575b5061192f614e12565b611a3090613925565b610238578038611a1e565b611a4490613925565b6106ce5782386119f3565b611a5890613925565b6106ce5782386119c6565b50346102385780600319360112610238576010546040516001600160a01b039091168152602090f35b5034610238576020366003190112610238576020611ab0611aab613a48565b614b85565b604051908152f35b503461023857602036600319011261023857600435906001600160401b03821161023857611b016020611aee36600486016139e2565b8160405193828580945193849201613a00565b81016014815203019020600281015461031760066003840154936004810154611b4860018060a01b0360058401541692611b416040518096819301613bf8565b038461396f565b604051958695865260208601526040850152606084015260a0608084015260a0830190613a23565b5034610238576040366003190112610238576001600160401b036004358181116108db57611ba29036906004016139e2565b60249182359081116105b857611bbc9036906004016139e2565b90611bc5614e12565b611bcd614e30565b6040518151602091828181860193611be6818387613a00565b8101601481520301902094611bfe6006870154613bbe565b156121cc5760058601546001600160a01b0390811633036121885760019687810196611c39604051611c34816102fc818d613e33565b614eb3565b1561214c57805115612137575b601297611c5f611c568a54613de6565b808b5533614f2f565b301561212057611d5a8b959493611ef260ed611d14958d8f611ece8f918f908f906102fc611ce9611ef79d611cee933360005260058752604060002030600052875260406000208160ff1982541617905560405190815230907f17307eab39ab6107e8899845ad3d59bd9653f200f220920489ca2b5937696c31883392a360405192838092613e33565b6152b3565b945498611cfa8a61539c565b966002611d0a600384015461539c565b92019d8e5461539c565b92604080519d8e809b607b60f81b898301527f226e616d65223a22466c697070616e646f20426173696320426f6172642023006021830152888151948593019101613a00565b61088b60f21b6040918b019182018190527f226465736372697074696f6e223a22536f6c76656420466c697070616e646f2060428301526d18985cda58c8189bd85c990b888b60921b60628301527f2267616d655f76657273696f6e223a22302e312e30202f20426c7565204f6365607083015263185b888b60e21b60908301526a1133b0b6b2afb4b2111d1160a91b6094830152975191611e02908390609f840190613a00565b0186609f8201526c1134b6b0b3b2afbab936111d1160991b60a1820152611e32825180938760ae85019101613a00565b018560ae820152711133b0b6b2afba34b632afba3cb832911d1160711b60b0820152611e67825180938660c285019101613a00565b018460c28201526d1133b0b6b2afb632bb32b6111d1160911b60c4820152611e98825180938560d285019101613a00565b019260d2840152752267616d655f736f6c7665645f626f617264223a225b60501b60d4840152835193849160ea85019101613a00565b01612e9160f11b60ea820152607d60f81b60ec8201520360cd81018552018361396f565b615270565b546010810361207d5750600c5460081c16908654823b156105b857606484928360405195869485936308778f5960e41b85523360048601528401528c60448401525af180156106c357612063575b5050907f3f1a9864b5687304a31c9a81973dcaab589c026ee94a9f585cbe48323b773298936007611f8783611ffc96955b604051809381928951928391613a00565b81016014815203019020611f9a81614af5565b611fa5888201614af5565b6000600282015560006003820155600060048201558860058201558860068201611fcf8154613bbe565b80612024575b5050500180546000825580612009575b505054604051938493604085526040850190613a23565b918301520390a1600b5580f35b61201d916000528360002090810190614ade565b3880611fe5565b601f811160011461203e575060009150555b883880611fd5565b9080600091845261205c601f898620940160051c84018d8501614ade565b5555612036565b6120709094939294613925565b6112b75790918538611f45565b6040146120bb575b505050907f3f1a9864b5687304a31c9a81973dcaab589c026ee94a9f585cbe48323b773298936007611f8783611ffc9695611f76565b600c5460081c16908654823b156105b857606484928360405195869485936308778f5960e41b8552336004860152840152600460448401525af180156106c357612106575b80612085565b6121139094939294613925565b6112b75790918538612100565b604051630b61174360e31b81523060048201528590fd5b5060405161214481613954565b898152611c46565b60405162461bcd60e51b8152600481018790526015818601527411d85b59481b9bdd08199d5b1b1e481cdbdb1d9959605a1b6044820152606490fd5b60405162461bcd60e51b815260048101859052601d818401527f4f6e6c79207468652067616d6520706c617965722063616e206d696e740000006044820152606490fd5b82600e6064926040519262461bcd60e51b845260048401528201526d11d85b59481b9bdd08199bdd5b9960921b6044820152fd5b503461023857602036600319011261023857602061221f600435614ef4565b6040516001600160a01b039091168152f35b5034610238578060031936011261023857602060ff600c54166040519015158152f35b5034610238578060031936011261023857600c5460405160089190911c6001600160a01b03168152602090f35b5060603660031901126102385760043563ffffffff81160361080d57806044356001600160401b038082116106ce57366023830112156106ce5781600401358181116106f157820190602482019136831161129f578360809103126106f1576001600160a01b03602484013581811693908490036112b75760448501359260648601359081116112c65761232d91602461231d928801016139e2565b6123278486614f2f565b83615270565b600c5460081c16803b1561129f57849283606492608460405197889687956308778f5960e41b875260048701526024860152013560448401525af180156106c3576106b35750f35b5034610238576020366003190112610238576020611ab0600435614aa2565b5034610238576060366003190112610238576123ae613a48565b604435906024356123bd61499e565b50600954936123cb856149b8565b9490928391906001600160a01b03908116835b83811061248557505050506123f48215156149ea565b6000198201918211611129575061240e8361241b92614a43565b9282612475575b83613dc3565b8180821091180281186124316110be8483614a36565b92805b82811061244d576103178585604051916110df8361390a565b8061245a6001928861498a565b5161246e6124688584614a36565b8861498a565b5201612434565b612480838510614a56565b612415565b61248e81614aa2565b828461249983614ef4565b16036124a9575b506001016123de565b876124bb91610ebd6001949a8d61498a565b96906124a0565b50346102385760208060031936011261032f57906124de613a48565b60155482916001600160a01b0390811690835b8381106126bc575061251b61250585613c8e565b94612513604051968761396f565b808652613c8e565b601f1901855b8181106126a15750508491855b8481106125945787878760405191838301848452825180915260408401948060408360051b870101940192955b8287106125685785850386f35b909192938280612584600193603f198a82030186528851613b14565b960192019601959291909261255b565b876125b183856125a6859c9b9c613ca5565b5060059384916148b6565b015416146125c7575b505060010196959661252e565b946126979160076126778598886125e86125e2600199613ca5565b506148b6565b91604051956125f687613938565b604051612607816102fc8188613e33565b8752604051906126248261261d818e8901613e33565b038361396f565b8701526002830154604087015260038301546060870152600483015460808701528201541660a0850152604051612662816102fc8160068601613bf8565b60c08501526102fc6040518094819301613df5565b60e0820152612686828a61498a565b52612691818961498a565b50613de6565b93905086386125ba565b968096976126ad61494a565b82828901015201969596612521565b828260056126cf6125e2859b9a9b613ca5565b015416146126e3575b6001019594956124f1565b936126ef600191613de6565b9490506126d8565b50346102385760203660031901126102385760ff60406020926004358152601684522054166040519015158152f35b5034610238576105b561273836613a74565b906040519261274684613954565b858452614cc3565b503461023857806003193601126102385761277460018060a01b03601354163314614853565b600c5460ff81161561070a5760ff1916600c557f5db9ee0a495bf2e6ff9c91a7834c1ba4fdd244a5e8aa4e537bd38aeae4b073aa6020604051338152a180f35b5034610238576040366003190112610238576020611ab06127d3613a48565b602435906147f3565b5034610238578060031936011261023857602063ffffffff60105460a01c16604051908152f35b5034610238576105b561281536613a74565b91614497565b50346102385780600319360112610238576020600954604051908152f35b503461023857604036600319011261023857612853613a48565b6024356017541561292b575b61286881614ef4565b33151580612918575b806128eb575b6128d3576001600160a01b039283169282918491167f8c5be1e5ebec7d5bd14f71427d1e84f3dd0314c0f7b2291e5b200ac8c7c3b925600080a460005260046020526040600020906001600160601b0360a01b82541617905580f35b60405163a9fbf51f60e01b8152336004820152602490fd5b5060018060a01b038116600052600560205260406000203360005260205260ff6040600020541615612877565b506001600160a01b038116331415612871565b61293f6001600160a01b0383163014614473565b61285f565b50346102385760203660031901126102385760209060043561296581614ef4565b50815260048252604060018060a01b0391205416604051908152f35b50346102385780600319360112610238576040516000805490826129a483613bbe565b91828252602093600190856001821691826000146110285750506001146129d25750610fb79250038361396f565b6000808052859250907f290decd9548b62a8d60345a988386fc84ba6bc95484008f6362f93160ef3e5635b858310612a14575050610fb7935082010185610faa565b805483890185015287945086939092019181016129fd565b5034610238576060366003190112610238576004356001600160401b03811161032f57612a5d9036906004016139e2565b366043121561032f57604051612a728161390a565b80366064116105b8576024905b6064821061384c575050612a91614e12565b612a99614e30565b6040516020818451612aae8183858901613a00565b810160148152030190209060018060a01b03600583015416612ad1811515613d41565b33036138115763ffffffff815116825480911090816137fd575b50156137b85760ff612b0463ffffffff83511684613d83565b90549060031b1c1615613745575b60ff612b2863ffffffff60208401511684613d83565b90549060031b1c1615613689575b60ff612b4963ffffffff83511684613d83565b90549060031b1c1660ff612b6763ffffffff60208501511685613d83565b90549060031b1c1614613616575b8154612b8081614e53565b908590865b8181106135dd5750501115613476575b60016040516020818651612bac8183858b01613a00565b81016014815203019020019060036040516020818751612bcf8183858c01613a00565b8101601481520301902001549060076040516020818851612bf38183858d01613a00565b81016014815203019020019160ff612c8360405193612c118561390a565b82612c46612c2e60208c8160405193828580945193849201613a00565b8101601481520301902063ffffffff84511690613d83565b90549060031b1c16855263ffffffff6020612c6f818c8160405193828580945193849201613a00565b810160148152030190209201511690613d83565b90549060031b1c166020830152604051808751612ca4818360208c01613a00565b8101039020936040519360a085019260a08652825480945260c08601928a5260208a20938a905b80601f8301106132d957612dec9554918181106132c5575b8181106132ae575b818110613297575b818110613280575b81811061326a575b818110613253575b81811061323c575b818110613225575b81811061320e575b8181106131f7575b8181106131e0575b8181106131c9575b8181106131b2575b81811061319b575b818110613184575b81811061316d575b818110613156575b81811061313f575b818110613128575b818110613111575b8181106130fa575b8181106130e3575b8181106130cc575b8181106130b5575b81811061309e575b818110613087575b818110613070575b818110613059575b818110613042575b81811061302b575b818110613014575b10613003575b5060208601528482036040860152613df5565b9086606084015b60028210612fea5750505090807fc773cb8cef4c3bf01d8ad90d4de9d313604e059cf8f6cb62ff469807515d17bf920390a2612e3c604051611c34816102fc8160018701613e33565b612e4a575b826001600b5580f35b600e546001600160a01b0316918391825b8251841015612f44576001600160f81b0319600360fc1b81612e7d8787614ee3565b511610159081612f29575b5015612ee457600a90818102918183041490151715612ed057612eab8484614ee3565b5160f81c90602f198201918211610ecb57600191612ec891613dc3565b930192612e5b565b634e487b7160e01b86526011600452602486fd5b60405162461bcd60e51b815260206004820152601b60248201527f496e76616c69642063686172616374657220696e20737472696e6700000000006044820152606490fd5b603960f81b9150612f3a8686614ee3565b5116111538612e88565b90925093929093813b156105b85783916024839260405194859384926367f0c35960e11b845260048401525af1801561185c57612fb9575b507fef1743a97d6dfcaf211d430d2d1ed200d00e321a80c1360097c3e1ab6daf50e19192612faf604051928392836143a0565b0390a13880612e41565b91612fe47fef1743a97d6dfcaf211d430d2d1ed200d00e321a80c1360097c3e1ab6daf50e193613925565b91612f7c565b60208060019260ff865116815201930191019091612df3565b60f81c835260209092019138612dd9565b94602060019160ff8560f01c168152019501612dd3565b94602060019160ff8560e81c168152019501612dcb565b94602060019160ff8560e01c168152019501612dc3565b94602060019160ff8560d81c168152019501612dbb565b94602060019160ff8560d01c168152019501612db3565b94602060019160ff8560c81c168152019501612dab565b94602060019160ff8560c01c168152019501612da3565b94602060019160ff8560b81c168152019501612d9b565b94602060019160ff8560b01c168152019501612d93565b94602060019160ff8560a81c168152019501612d8b565b94602060019160ff8560a01c168152019501612d83565b94602060019160ff8560981c168152019501612d7b565b94602060019160ff8560901c168152019501612d73565b94602060019160ff8560881c168152019501612d6b565b94602060019160ff8560801c168152019501612d63565b94602060019160ff8560781c168152019501612d5b565b94602060019160ff8560701c168152019501612d53565b94602060019160ff8560681c168152019501612d4b565b94602060019160ff8560601c168152019501612d43565b94602060019160ff8560581c168152019501612d3b565b94602060019160ff8560501c168152019501612d33565b94602060019160ff8560481c168152019501612d2b565b94602060019160ff8560401c168152019501612d23565b94602060019160ff8560381c168152019501612d1b565b94602060019160ff8560301c168152019501612d13565b94602060019160ff8560281c168152019501612d0b565b94602060019160ff85831c168152019501612d03565b94602060019160ff8560181c168152019501612cfb565b94602060019160ff8560101c168152019501612cf3565b94602060019160ff8560081c168152019501612ceb565b94602060019160ff85168152019501612ce3565b909192936001610400602092885460ff8116825260ff8160081c168583015260ff8160101c16604083015260ff8160181c16606083015260ff8160808282891c1681860152828260281c1660a0860152828260301c1660c0860152828260381c1660e0860152828260401c16610100860152828260481c16610120860152828260501c16610140860152828260581c16610160860152828260601c16610180860152828260681c166101a0860152828260701c166101c0860152828260781c166101e08601521c1661020083015260ff8160881c1661022083015260ff8160901c1661024083015260ff8160981c1661026083015260ff8160a01c1661028083015260ff8160a81c166102a083015260ff8160b01c166102c083015260ff8160b81c166102e083015260ff8160c01c1661030083015260ff8160c81c1661032083015260ff8160d01c1661034083015260ff8160d81c1661036083015260ff8160e01c1661038083015260ff8160e81c166103a083015260ff8160f01c166103c083015260f81c6103e08201520196019201909493929194612ccb565b60ff61348963ffffffff83511684613d83565b90549060031b1c1660ff6134a763ffffffff60208501511685613d83565b90549060031b1c1614612b955760ff6134e960405160208187516134ce8183858c01613a00565b8101601481520301902063ffffffff60208501511690613d83565b90549060031b1c1661353c613524604051602081885161350c8183858d01613a00565b8101601481520301902063ffffffff85511690613d83565b819391549060ff809160031b9316831b921b19161790565b905560ff6135586040516020818751612c2e8183858c01613a00565b90549060031b1c168061359c6135246001604051602081816135808c83815193849201613a00565b810160148152030190200163ffffffff60208701511690613d83565b90556135d66135246001604051602081816135bd8b83815193849201613a00565b810160148152030190200163ffffffff85511690613d83565b9055612b95565b60ff6135ec8260018901613d83565b90549060031b1c1615613602575b600101612b85565b9161360e600191613de6565b9290506135fa565b60ff61362963ffffffff83511684613d83565b90549060031b1c16600183019061364a61352463ffffffff85511684613d83565b905561368261352460ff61366863ffffffff60208701511687613d83565b90549060031b1c169263ffffffff60208601511690613d83565b9055612b75565b615ba94201421161373157604051615ba9420160208201524360408201523360601b6060820152605481528060808101106001600160401b0360808301111761371d576136f76136ee82608060ff940160405260208151910120600786015490613da3565b60078501613d29565b90549060031b1c1661371661352463ffffffff60208501511685613d83565b9055612b36565b634e487b7160e01b85526041600452602485fd5b634e487b7160e01b84526011600452602484fd5b6040514260208201523360601b6040820152603481528060608101106001600160401b0360608301111761371d576137956136ee82606060ff940160405260208151910120600786015490613da3565b90549060031b1c166137b161352463ffffffff84511685613d83565b9055612b12565b60405162461bcd60e51b815260206004820152601760248201527f496e76616c696420626f61726420706f736974696f6e730000000000000000006044820152606490fd5b905063ffffffff6020830151161038612aeb565b60405162461bcd60e51b81526020600482015260136024820152722737ba103a34329033b0b6b290383630bcb2b960691b6044820152606490fd5b813563ffffffff811681036112b757815260209182019101612a7f565b90503461032f57602036600319011261032f5760043563ffffffff60e01b81168091036108db576020925063780e9d6360e01b81149081156138ad575b5015158152f35b632483248360e11b8114915081156138c7575b50386138a6565b6380ac58cd60e01b8114915081156138f9575b81156138e8575b50386138c0565b6301ffc9a760e01b149050386138e1565b635b5e139f60e01b811491506138da565b604081019081106001600160401b03821117610cc957604052565b6001600160401b038111610cc957604052565b61010081019081106001600160401b03821117610cc957604052565b602081019081106001600160401b03821117610cc957604052565b90601f801991011681019081106001600160401b03821117610cc957604052565b6001600160401b038111610cc957601f01601f191660200190565b9291926139b782613990565b916139c5604051938461396f565b82948184528183011161080d578281602093846000960137010152565b9080601f8301121561080d578160206139fd933591016139ab565b90565b60005b838110613a135750506000910152565b8181015183820152602001613a03565b90602091613a3c81518092818552858086019101613a00565b601f01601f1916010190565b600435906001600160a01b038216820361080d57565b602435906001600160a01b038216820361080d57565b606090600319011261080d576001600160a01b0390600435828116810361080d5791602435908116810361080d579060443590565b90815180825260208080930193019160005b828110613ac9575050505090565b835160ff1685529381019392810192600101613abb565b90815180825260208080930193019160005b828110613b00575050505090565b835185529381019392810192600101613af2565b6139fd9160e0613b88613b46613b34610100865190808752860190613aa9565b60208601518582036020870152613aa9565b60408501516040850152606085015160608501526080850151608085015260018060a01b0360a08601511660a085015260c085015184820360c0860152613a23565b9201519060e0818403910152613ae0565b6020815260406020613bb5845183838601526060850190613ae0565b93015191015290565b90600182811c92168015613bee575b6020831014613bd857565b634e487b7160e01b600052602260045260246000fd5b91607f1691613bcd565b805460009392613c0782613bbe565b91828252602093600191600181169081600014613c6f5750600114613c2e575b5050505050565b90939495506000929192528360002092846000945b838610613c5b57505050500101903880808080613c27565b805485870183015294019385908201613c43565b60ff19168685015250505090151560051b010191503880808080613c27565b6001600160401b038111610cc95760051b60200190565b601554811015613cdc5760156000527f55f448fdea98c4d29eb340757ef0a66cd03dbb9538908a6a81d96026b71ec4750190600090565b634e487b7160e01b600052603260045260246000fd5b600954811015613cdc5760096000527f6e1540171b6c0c960b71a7020d9f60077f6af931a8bbf590da0223dacf75c7af0190600090565b8054821015613cdc5760005260206000200190600090565b15613d4857565b60405162461bcd60e51b815260206004820152601360248201527211d85b5948191bd95cc81b9bdd08195e1a5cdd606a1b6044820152606490fd5b9190918054831015613cdc57600052601f60206000208360051c01921690565b8115613dad570690565b634e487b7160e01b600052601260045260246000fd5b91908201809211613dd057565b634e487b7160e01b600052601160045260246000fd5b6000198114613dd05760010190565b9081548082526020809201926000526020600020916000905b828210613e1c575050505090565b835485529384019360019384019390910190613e0e565b805480835260208093019160005282600020906000915b8482601f85011061421157505491848282106141fe575b8282106141e8575b8282106141d2575b8282106141bc575b8282106141a7575b828210614191575b82821061417b575b828210614165575b82821061414f575b828210614139575b828210614123575b82821061410d575b8282106140f7575b8282106140e1575b8282106140cb575b8282106140b5575b82821061409f575b828210614089575b828210614073575b82821061405d575b828210614047575b828210614031575b82821061401b575b828210614005575b828210613fef575b828210613fd9575b828210613fc3575b828210613fad575b828210613f97575b828210613f81575b828210613f6b575b5010613f5e575b50905090565b60f81c8152018038613f58565b6001919460ff8560f01c16815201930184613f51565b6001919460ff8560e81c16815201930184613f49565b6001919460ff8560e01c16815201930184613f41565b6001919460ff8560d81c16815201930184613f39565b6001919460ff8560d01c16815201930184613f31565b6001919460ff8560c81c16815201930184613f29565b6001919460ff8560c01c16815201930184613f21565b6001919460ff8560b81c16815201930184613f19565b6001919460ff8560b01c16815201930184613f11565b6001919460ff8560a81c16815201930184613f09565b6001919460ff8560a01c16815201930184613f01565b6001919460ff8560981c16815201930184613ef9565b6001919460ff8560901c16815201930184613ef1565b6001919460ff8560881c16815201930184613ee9565b6001919460ff8560801c16815201930184613ee1565b6001919460ff8560781c16815201930184613ed9565b6001919460ff8560701c16815201930184613ed1565b6001919460ff8560681c16815201930184613ec9565b6001919460ff8560601c16815201930184613ec1565b6001919460ff8560581c16815201930184613eb9565b6001919460ff8560501c16815201930184613eb1565b6001919460ff8560481c16815201930184613ea9565b6001919460ff8560401c16815201930184613ea1565b6001919460ff8560381c16815201930184613e99565b6001919460ff8560301c16815201930184613e91565b6001919460ff8560281c16815201930184613e89565b6001919460ff85831c16815201930184613e81565b6001919460ff8560181c16815201930184613e79565b6001919460ff8560101c16815201930184613e71565b6001919460ff8560081c16815201930184613e69565b6001919460ff8516815201930184613e61565b9093610400600191865460ff8116825260ff8160081c168583015260ff816040828260101c168186015282826060828260181c168189015282828c82826080921c16818c0152828260a0958d87848460281c169101528d610100848460c09d8e838360301c1690860152828260381c1660e08601521c169101528d610120848460481c169101528d610140848460501c169101528d610160848460581c169101521c166101808c0152828260681c166101a08c0152828260701c166101c08c0152828260781c166101e08c01521c16610200890152828260881c16610220890152828260901c16610240890152828260981c166102608901521c16610280860152828260a81c166102a0860152828260b01c166102c0860152828260b81c166102e08601521c1661030083015260ff8160c81c1661032083015260ff8160d01c1661034083015260ff8160d81c1661036083015260ff8160e01c1661038083015260ff8160e81c166103a083015260ff8160f01c166103c083015260f81c6103e0820152019401920191613e4a565b906139fd926143b9600792604085526040850190613a23565b92602081850391015261442c6143ea6143d9610100808752860184613e33565b858103602087015260018401613e33565b60028301546040860152600383015460608601526004830154608086015260058301546001600160a01b031660a086015284810360c086015260068301613bf8565b9260e081850391015201613df5565b60609060208152601a60208201527f4e4654207472616e7366657273206172652064697361626c656400000000000060408201520190565b1561447a57565b60405162461bcd60e51b8152806144936004820161443b565b0390fd5b6001600160a01b03828116939184156147da57600094838652602060028152604096848882205416801515806147d2575b61474e575b50908582526002815284888320541696331515806146be575b508715801561468b575b84845260038352898420805460010190558784526002835289842080546001600160a01b0319168617905587858a7fddf252ad1be2c89b69c2b068fc378daa952ba7f163c4a11628f55a4df523b3ef8780a41561461d57600954878452600a8352808a852055600160401b811015610c84578761457682600161458f9401600955613cf2565b90919082549060031b91821b91600019901b1916179055565b8388036145cb575b5050505016928383036145aa5750505050565b6064945051926364283d7b60e01b8452600484015260248301526044820152fd5b6145d490614b85565b6000198101939084116146095782916008918a9452600781528383208584528152878484205587835252205538808080614597565b634e487b7160e01b83526011600452602483fd5b87841461458f5761462d88614b85565b878452600883528984205490898552600784528a852091818103614669575b508885526008845260008b8620558452825260008984205561458f565b8186528285528b862054818752808d8820558652600885528b8620553861464c565b600088815260046020526040902080546001600160a01b03191690558884526003835289842080546000190190556144f0565b8061470b575b156146cf57386144e6565b8887896146ec576024915190637e27328960e01b82526004820152fd5b905163177e802f60e01b81523360048201526024810191909152604490fd5b503388148015614730575b806146c457508683526004825233868a85205416146146c4565b508783526005825288832033600052825260ff896000205416614716565b60175461476d57885162461bcd60e51b8152806144936004820161443b565b85600c5460081c1690813b156108db578291606483928c51948593849263185f72ff60e31b845260048401528960248401528c60448401525af180156147c8576147b9575b50386144cd565b6147c290613925565b386147b2565b89513d84823e3d90fd5b5060016144c8565b604051633250574960e11b815260006004820152602490fd5b6147fc81614b85565b8210156148285760018060a01b0316600052600760205260406000209060005260205260406000205490565b60405163295f44f760e21b81526001600160a01b039190911660048201526024810191909152604490fd5b1561485a57565b60405162461bcd60e51b815260206004820152602e60248201527f4f6e6c792074686520636f6e7472616374206f776e65722063616e2063616c6c60448201526d103a3434b990333ab731ba34b7b760911b6064820152608490fd5b6040519081600082546148c881613bbe565b9360019180831690811561492e57506001146148f0575b505060209250601481520301902090565b9091506000526020906020600020906000915b85831061491a5750505050602091810138806148df565b805487840152869450918301918101614903565b92505050602093915060ff1916825280151502810138806148df565b6040519061495782613938565b606060e0838281528260208201526000604082015260008382015260006080820152600060a08201528260c08201520152565b8051821015613cdc5760209160051b010190565b604051906149ab8261390a565b6000602083606081520152565b906149c282613c8e565b6149cf604051918261396f565b82815280926149e0601f1991613c8e565b0190602036910137565b156149f157565b60405162461bcd60e51b815260206004820152601b60248201527f50616765206d7573742062652067726561746572207468616e203000000000006044820152606490fd5b91908203918211613dd057565b81810292918115918404141715613dd057565b15614a5d57565b60405162461bcd60e51b815260206004820152601c60248201527f50616765206578636565647320617661696c61626c65206974656d73000000006044820152606490fd5b600954811015614abf57614ab590613cf2565b90549060031b1c90565b6044906040519063295f44f760e21b8252600060048301526024820152fd5b818110614ae9575050565b60008155600101614ade565b80546000825580614b04575050565b614b1f91600052601f6020600020910160051c810190614ade565b565b90600160401b8111610cc9578154818355808210614b3e57505050565b614b1f92600052601f6020600020918180850160051c8401941680614b6a575b500160051c0190614ade565b600019908186019182549160200360031b1c16905538614b5e565b6001600160a01b03168015614ba557600052600360205260406000205490565b6040516322718ad960e21b815260006004820152602490fd5b91909182516001600160401b038111610cc957614bdb8254613bbe565b601f8111614c86575b50602080601f8311600114614c21575081929394600092614c16575b50508160011b916000199060031b1c1916179055565b015190503880614c00565b90601f19831695846000526020600020926000905b888210614c6e57505083600195969710614c55575b505050811b019055565b015160001960f88460031b161c19169055388080614c4b565b80600185968294968601518155019501930190614c36565b614cb390836000526020600020601f840160051c81019160208510614cb9575b601f0160051c0190614ade565b38614be4565b9091508190614ca6565b614cce838383614497565b813b614cdb575b50505050565b604051630a85bd0160e11b8082523360048301526001600160a01b03928316602483015260448201949094526080606482015260209592909116939092908390614d29906084830190613a23565b039285816000958187895af1849181614dd2575b50614d9d575050503d600014614d95573d614d5781613990565b90614d65604051928361396f565b81528091843d92013e5b80519283614d9057604051633250574960e11b815260048101849052602490fd5b019050fd5b506060614d6f565b919450915063ffffffff60e01b1603614dba575038808080614cd5565b60249060405190633250574960e11b82526004820152fd5b9091508681813d8311614e0b575b614dea818361396f565b8101031261129f57516001600160e01b03198116810361129f579038614d3d565b503d614de0565b60ff600c5416614e1e57565b60405163d93c066560e01b8152600490fd5b6002600b5414614e41576002600b55565b604051633ee5aeb560e01b8152600490fd5b908115614ead576001808301808411613dd05760011c90835b848310614e7857505050565b91935090838015614e985780614e8f918304613dc3565b821c9190614e6c565b60246000634e487b7160e01b81526012600452fd5b60009150565b6000805b8251811015614edb5760ff614ecc828561498a565b511615613f5857600101614eb7565b505050600190565b908151811015613cdc570160200190565b6000818152600260205260409020546001600160a01b0316908115614f17575090565b60249060405190637e27328960e01b82526004820152fd5b6001600160a01b03929183821680156147da576000918083526020906002825260409487868620541680151580615268575b6151ce575b50848096979883829697526002855280898320541697615122575b505085159585871597886150ef575b81875260038652898720805460010190558487526002865289872080546001600160a01b031916831790558482847fddf252ad1be2c89b69c2b068fc378daa952ba7f163c4a11628f55a4df523b3ef8a80a4156150805750600954838652600a85528089872055600160401b811015610cdf5790615019846145768460018b9601600955613cf2565b03615042575b505050505061502b5750565b516339e3563760e11b815260006004820152602490fd5b61504b90614b85565b60001981019490851161373157835260078252858320848452825285832081905582526008905283902055388080808061501f565b908082146150195761509181614b85565b848752600886528987205490828852600787528a8820918181036150cd575b508588526008875260008b89205587528552600089872055615019565b8189528288528b892054818a52808d8b20558952600888528b892055386150b0565b600085815260046020526040902080546001600160a01b0319169055828752600386528987208054600019019055614f90565b8161517e575b5015615135578338614f81565b50858386615155578151637e27328960e01b815260048101849052602490fd5b905163177e802f60e01b81526001600160a01b0390911660048201526024810191909152604490fd5b8715915081156151ac575b8115615197575b5038615128565b90508285526004845287852054161538615190565b905086855260058452878520818616600052845260ff88600020541690615189565b969597601754156000146151f457885162461bcd60e51b8152806144936004820161443b565b600c5460081c8116989697893b156112c65787989960648899928993519a8b93849263185f72ff60e31b845260048401528a60248401528860448401525af1801561525e57615248575b9796955084614f66565b9394909561525590613925565b9392859061523e565b88513d88823e3d90fd5b506001614f61565b6020906152aa7ff8e1a15aba9398e019f0b49df1a4fde98ee17ae345cb5f6b5e2c27f5033e8ce79382600052600684526040600020614bbe565b604051908152a1565b80511561538857606060005b8251811015613f58576153226152e160ff6152da848761498a565b511661539c565b60409384519283926020938491826153028184019687815193849201613a00565b820161531682518093868085019101613a00565b0103808652018461396f565b829486516000198101908111613dd0578510615345575b505050506001016152bf565b60019495509261537e92600b60fa1b60219361536b965196879451809285870190613a00565b830191820152038481018452018261396f565b9190388080615339565b5060405161539581613954565b6000815290565b801561543e5780816000925b61542857506153b682613990565b916153c4604051938461396f565b80835281601f196153d483613990565b013660208601375b6153e557505090565b6000198101908111613dd0578091600a9160308383068101809111613dd05760f81b6001600160f81b03191660001a9061541f9086614ee3565b530490816153dc565b9091615435600a91613de6565b929104806153a8565b5060405161544b8161390a565b60018152600360fc1b602082015290565b60008181526002602090815260408083205490926001600160a01b0392918316801515806157a0575b615714575b5084815260028252838120548316816156a2575b818115948515918261566d575b615657575b878452600285528684209084166001600160601b0360a01b8254161790558683837fddf252ad1be2c89b69c2b068fc378daa952ba7f163c4a11628f55a4df523b3ef8280a484156155e5575050600954858252600a83528085832055600160401b8110156155d1578561457682600161552c9401600955613cf2565b6009546000199283820191821161460957600a908784528181526155538785205493613cf2565b90549060031b1c6155678161457686613cf2565b845252848220558481526000848220556009549081156155bd575081019061558e82613cf2565b909182549160031b1b191690556009556155a6575050565b602492505190637e27328960e01b82526004820152fd5b634e487b7160e01b81526031600452602490fd5b634e487b7160e01b82526041600452602482fd5b6155f0575b5061552c565b6155f981614b85565b86835260088452858320549183526007845285832091818103615635575b508683526008845260008684205582528252600084822055386155ea565b8184528285528684205481855280888620558452600885528684205538615617565b83805260038552868420600181540190556154b0565b50600088815260046020526040902080546001600160a01b0319169055828452600385528684208054600019019055836154ab565b81806156d1575b61549e579150915015600014615155578151637e27328960e01b815260048101849052602490fd5b50801580156156f4575b806156a9575085825260048352838583205416156156a9565b5080825260058352848220848316600052835260ff8560002054166156db565b6017549496959461573757865162461bcd60e51b8152806144936004820161443b565b83600c979596975460081c1690813b156108db578291606483928851948593849263185f72ff60e31b845260048401528160248401528b60448401525af1801561579657615787575b503861548a565b61579090613925565b38615780565b85513d84823e3d90fd5b5081615485565b6157b081614ef4565b5060005260066020526102fc6157d0604060002060405192838092613bf8565b60006040516157de81613954565b529056fea2646970667358221220122e2e010525462fbe29731305ff1da61f1c231a5cc456a06488cb8203ebb5c164736f6c63430008160033",
  "linkReferences": {},
  "deployedLinkReferences": {}
}