{
  "_format": "hh-sol-artifact-1",
  "contractName": "FlippandoBundler",
  "sourceName": "contracts/FlippandoBundler.sol",
  "abi": [
    {
      "inputs": [],
      "stateMutability": "nonpayable",
      "type": "constructor"
    },
    {
      "inputs": [],
      "name": "ERC721EnumerableForbiddenBatchMint",
      "type": "error"
    },
    {
      "inputs": [
        {
          "internalType": "address",
          "name": "sender",
          "type": "address"
        },
        {
          "internalType": "uint256",
          "name": "tokenId",
          "type": "uint256"
        },
        {
          "internalType": "address",
          "name": "owner",
          "type": "address"
        }
      ],
      "name": "ERC721IncorrectOwner",
      "type": "error"
    },
    {
      "inputs": [
        {
          "internalType": "address",
          "name": "operator",
          "type": "address"
        },
        {
          "internalType": "uint256",
          "name": "tokenId",
          "type": "uint256"
        }
      ],
      "name": "ERC721InsufficientApproval",
      "type": "error"
    },
    {
      "inputs": [
        {
          "internalType": "address",
          "name": "approver",
          "type": "address"
        }
      ],
      "name": "ERC721InvalidApprover",
      "type": "error"
    },
    {
      "inputs": [
        {
          "internalType": "address",
          "name": "operator",
          "type": "address"
        }
      ],
      "name": "ERC721InvalidOperator",
      "type": "error"
    },
    {
      "inputs": [
        {
          "internalType": "address",
          "name": "owner",
          "type": "address"
        }
      ],
      "name": "ERC721InvalidOwner",
      "type": "error"
    },
    {
      "inputs": [
        {
          "internalType": "address",
          "name": "receiver",
          "type": "address"
        }
      ],
      "name": "ERC721InvalidReceiver",
      "type": "error"
    },
    {
      "inputs": [
        {
          "internalType": "address",
          "name": "sender",
          "type": "address"
        }
      ],
      "name": "ERC721InvalidSender",
      "type": "error"
    },
    {
      "inputs": [
        {
          "internalType": "uint256",
          "name": "tokenId",
          "type": "uint256"
        }
      ],
      "name": "ERC721NonexistentToken",
      "type": "error"
    },
    {
      "inputs": [
        {
          "internalType": "address",
          "name": "owner",
          "type": "address"
        },
        {
          "internalType": "uint256",
          "name": "index",
          "type": "uint256"
        }
      ],
      "name": "ERC721OutOfBoundsIndex",
      "type": "error"
    },
    {
      "inputs": [],
      "name": "EnforcedPause",
      "type": "error"
    },
    {
      "inputs": [],
      "name": "ExpectedPause",
      "type": "error"
    },
    {
      "anonymous": false,
      "inputs": [
        {
          "indexed": true,
          "internalType": "address",
          "name": "owner",
          "type": "address"
        },
        {
          "indexed": true,
          "internalType": "address",
          "name": "approved",
          "type": "address"
        },
        {
          "indexed": true,
          "internalType": "uint256",
          "name": "tokenId",
          "type": "uint256"
        }
      ],
      "name": "Approval",
      "type": "event"
    },
    {
      "anonymous": false,
      "inputs": [
        {
          "indexed": true,
          "internalType": "address",
          "name": "owner",
          "type": "address"
        },
        {
          "indexed": true,
          "internalType": "address",
          "name": "operator",
          "type": "address"
        },
        {
          "indexed": false,
          "internalType": "bool",
          "name": "approved",
          "type": "bool"
        }
      ],
      "name": "ApprovalForAll",
      "type": "event"
    },
    {
      "anonymous": false,
      "inputs": [
        {
          "indexed": false,
          "internalType": "uint256",
          "name": "_fromTokenId",
          "type": "uint256"
        },
        {
          "indexed": false,
          "internalType": "uint256",
          "name": "_toTokenId",
          "type": "uint256"
        }
      ],
      "name": "BatchMetadataUpdate",
      "type": "event"
    },
    {
      "anonymous": false,
      "inputs": [
        {
          "indexed": false,
          "internalType": "uint256",
          "name": "boardWidth",
          "type": "uint256"
        },
        {
          "indexed": false,
          "internalType": "uint256",
          "name": "boardHeight",
          "type": "uint256"
        },
        {
          "indexed": false,
          "internalType": "string",
          "name": "bTokenIds",
          "type": "string"
        },
        {
          "indexed": false,
          "internalType": "string",
          "name": "imageUrl",
          "type": "string"
        }
      ],
      "name": "BundleAssets",
      "type": "event"
    },
    {
      "anonymous": false,
      "inputs": [
        {
          "indexed": false,
          "internalType": "uint256",
          "name": "_tokenId",
          "type": "uint256"
        }
      ],
      "name": "MetadataUpdate",
      "type": "event"
    },
    {
      "anonymous": false,
      "inputs": [
        {
          "indexed": false,
          "internalType": "address",
          "name": "account",
          "type": "address"
        }
      ],
      "name": "Paused",
      "type": "event"
    },
    {
      "anonymous": false,
      "inputs": [
        {
          "indexed": true,
          "internalType": "address",
          "name": "from",
          "type": "address"
        },
        {
          "indexed": true,
          "internalType": "address",
          "name": "to",
          "type": "address"
        },
        {
          "indexed": true,
          "internalType": "uint256",
          "name": "tokenId",
          "type": "uint256"
        }
      ],
      "name": "Transfer",
      "type": "event"
    },
    {
      "anonymous": false,
      "inputs": [
        {
          "indexed": false,
          "internalType": "address",
          "name": "account",
          "type": "address"
        }
      ],
      "name": "Unpaused",
      "type": "event"
    },
    {
      "inputs": [
        {
          "internalType": "address",
          "name": "to",
          "type": "address"
        },
        {
          "internalType": "uint256",
          "name": "tokenId",
          "type": "uint256"
        }
      ],
      "name": "approve",
      "outputs": [],
      "stateMutability": "nonpayable",
      "type": "function"
    },
    {
      "inputs": [
        {
          "internalType": "address",
          "name": "owner",
          "type": "address"
        }
      ],
      "name": "balanceOf",
      "outputs": [
        {
          "internalType": "uint256",
          "name": "",
          "type": "uint256"
        }
      ],
      "stateMutability": "view",
      "type": "function"
    },
    {
      "inputs": [
        {
          "internalType": "uint256",
          "name": "tokenId",
          "type": "uint256"
        }
      ],
      "name": "bridgeFLIPAG",
      "outputs": [],
      "stateMutability": "nonpayable",
      "type": "function"
    },
    {
      "inputs": [
        {
          "internalType": "uint256",
          "name": "boardWidth",
          "type": "uint256"
        },
        {
          "internalType": "uint256",
          "name": "boardHeight",
          "type": "uint256"
        },
        {
          "internalType": "string",
          "name": "bTokenIds",
          "type": "string"
        },
        {
          "internalType": "string",
          "name": "imageUrl",
          "type": "string"
        },
        {
          "internalType": "string",
          "name": "metadataUrl",
          "type": "string"
        },
        {
          "internalType": "address",
          "name": "newOwner",
          "type": "address"
        }
      ],
      "name": "bundleAssets",
      "outputs": [
        {
          "internalType": "uint256",
          "name": "tokenId",
          "type": "uint256"
        }
      ],
      "stateMutability": "nonpayable",
      "type": "function"
    },
    {
      "inputs": [
        {
          "internalType": "address",
          "name": "newOwner",
          "type": "address"
        }
      ],
      "name": "changeOwner",
      "outputs": [],
      "stateMutability": "nonpayable",
      "type": "function"
    },
    {
      "inputs": [],
      "name": "destinationContract",
      "outputs": [
        {
          "internalType": "address",
          "name": "",
          "type": "address"
        }
      ],
      "stateMutability": "view",
      "type": "function"
    },
    {
      "inputs": [],
      "name": "destinationDomain",
      "outputs": [
        {
          "internalType": "uint32",
          "name": "",
          "type": "uint32"
        }
      ],
      "stateMutability": "view",
      "type": "function"
    },
    {
      "inputs": [],
      "name": "flippandoContract",
      "outputs": [
        {
          "internalType": "contract IFlippando",
          "name": "",
          "type": "address"
        }
      ],
      "stateMutability": "view",
      "type": "function"
    },
    {
      "inputs": [
        {
          "internalType": "uint256",
          "name": "tokenId",
          "type": "uint256"
        }
      ],
      "name": "getApproved",
      "outputs": [
        {
          "internalType": "address",
          "name": "",
          "type": "address"
        }
      ],
      "stateMutability": "view",
      "type": "function"
    },
    {
      "inputs": [
        {
          "internalType": "uint256",
          "name": "page",
          "type": "uint256"
        },
        {
          "internalType": "uint256",
          "name": "itemsPerPage",
          "type": "uint256"
        }
      ],
      "name": "getUserNFTs",
      "outputs": [
        {
          "components": [
            {
              "internalType": "uint256[]",
              "name": "items",
              "type": "uint256[]"
            },
            {
              "internalType": "uint256",
              "name": "totalItems",
              "type": "uint256"
            }
          ],
          "internalType": "struct FlippandoBundler.PaginatedResponse",
          "name": "",
          "type": "tuple"
        }
      ],
      "stateMutability": "view",
      "type": "function"
    },
    {
      "inputs": [
        {
          "internalType": "uint32",
          "name": "originDomain",
          "type": "uint32"
        },
        {
          "internalType": "bytes32",
          "name": "sender",
          "type": "bytes32"
        },
        {
          "internalType": "bytes",
          "name": "message",
          "type": "bytes"
        }
      ],
      "name": "handle",
      "outputs": [],
      "stateMutability": "payable",
      "type": "function"
    },
    {
      "inputs": [],
      "name": "hyperlaneDeployer",
      "outputs": [
        {
          "internalType": "address",
          "name": "",
          "type": "address"
        }
      ],
      "stateMutability": "view",
      "type": "function"
    },
    {
      "inputs": [
        {
          "internalType": "address",
          "name": "owner",
          "type": "address"
        },
        {
          "internalType": "address",
          "name": "operator",
          "type": "address"
        }
      ],
      "name": "isApprovedForAll",
      "outputs": [
        {
          "internalType": "bool",
          "name": "",
          "type": "bool"
        }
      ],
      "stateMutability": "view",
      "type": "function"
    },
    {
      "inputs": [],
      "name": "mailbox",
      "outputs": [
        {
          "internalType": "contract IHyperlaneMailbox",
          "name": "",
          "type": "address"
        }
      ],
      "stateMutability": "view",
      "type": "function"
    },
    {
      "inputs": [],
      "name": "name",
      "outputs": [
        {
          "internalType": "string",
          "name": "",
          "type": "string"
        }
      ],
      "stateMutability": "view",
      "type": "function"
    },
    {
      "inputs": [],
      "name": "nextTokenId",
      "outputs": [
        {
          "internalType": "uint256",
          "name": "",
          "type": "uint256"
        }
      ],
      "stateMutability": "view",
      "type": "function"
    },
    {
      "inputs": [],
      "name": "owner",
      "outputs": [
        {
          "internalType": "address",
          "name": "",
          "type": "address"
        }
      ],
      "stateMutability": "view",
      "type": "function"
    },
    {
      "inputs": [
        {
          "internalType": "uint256",
          "name": "tokenId",
          "type": "uint256"
        }
      ],
      "name": "ownerOf",
      "outputs": [
        {
          "internalType": "address",
          "name": "",
          "type": "address"
        }
      ],
      "stateMutability": "view",
      "type": "function"
    },
    {
      "inputs": [],
      "name": "pause",
      "outputs": [],
      "stateMutability": "nonpayable",
      "type": "function"
    },
    {
      "inputs": [],
      "name": "paused",
      "outputs": [
        {
          "internalType": "bool",
          "name": "",
          "type": "bool"
        }
      ],
      "stateMutability": "view",
      "type": "function"
    },
    {
      "inputs": [
        {
          "internalType": "address",
          "name": "from",
          "type": "address"
        },
        {
          "internalType": "address",
          "name": "to",
          "type": "address"
        },
        {
          "internalType": "uint256",
          "name": "tokenId",
          "type": "uint256"
        }
      ],
      "name": "safeTransferFrom",
      "outputs": [],
      "stateMutability": "nonpayable",
      "type": "function"
    },
    {
      "inputs": [
        {
          "internalType": "address",
          "name": "from",
          "type": "address"
        },
        {
          "internalType": "address",
          "name": "to",
          "type": "address"
        },
        {
          "internalType": "uint256",
          "name": "tokenId",
          "type": "uint256"
        },
        {
          "internalType": "bytes",
          "name": "data",
          "type": "bytes"
        }
      ],
      "name": "safeTransferFrom",
      "outputs": [],
      "stateMutability": "nonpayable",
      "type": "function"
    },
    {
      "inputs": [
        {
          "internalType": "address",
          "name": "operator",
          "type": "address"
        },
        {
          "internalType": "bool",
          "name": "approved",
          "type": "bool"
        }
      ],
      "name": "setApprovalForAll",
      "outputs": [],
      "stateMutability": "nonpayable",
      "type": "function"
    },
    {
      "inputs": [
        {
          "internalType": "address",
          "name": "_flippandoAddress",
          "type": "address"
        }
      ],
      "name": "setFlippandoContract",
      "outputs": [],
      "stateMutability": "nonpayable",
      "type": "function"
    },
    {
      "inputs": [
        {
          "internalType": "address",
          "name": "_mailbox",
          "type": "address"
        },
        {
          "internalType": "address",
          "name": "_destinationContract",
          "type": "address"
        },
        {
          "internalType": "uint32",
          "name": "_destinationDomain",
          "type": "uint32"
        }
      ],
      "name": "setHyperlaneConfig",
      "outputs": [],
      "stateMutability": "nonpayable",
      "type": "function"
    },
    {
      "inputs": [
        {
          "internalType": "address",
          "name": "newDeployer",
          "type": "address"
        }
      ],
      "name": "setHyperlaneDeployer",
      "outputs": [],
      "stateMutability": "nonpayable",
      "type": "function"
    },
    {
      "inputs": [
        {
          "internalType": "bytes4",
          "name": "interfaceId",
          "type": "bytes4"
        }
      ],
      "name": "supportsInterface",
      "outputs": [
        {
          "internalType": "bool",
          "name": "",
          "type": "bool"
        }
      ],
      "stateMutability": "view",
      "type": "function"
    },
    {
      "inputs": [],
      "name": "symbol",
      "outputs": [
        {
          "internalType": "string",
          "name": "",
          "type": "string"
        }
      ],
      "stateMutability": "view",
      "type": "function"
    },
    {
      "inputs": [
        {
          "internalType": "uint256",
          "name": "index",
          "type": "uint256"
        }
      ],
      "name": "tokenByIndex",
      "outputs": [
        {
          "internalType": "uint256",
          "name": "",
          "type": "uint256"
        }
      ],
      "stateMutability": "view",
      "type": "function"
    },
    {
      "inputs": [
        {
          "internalType": "address",
          "name": "owner",
          "type": "address"
        },
        {
          "internalType": "uint256",
          "name": "index",
          "type": "uint256"
        }
      ],
      "name": "tokenOfOwnerByIndex",
      "outputs": [
        {
          "internalType": "uint256",
          "name": "",
          "type": "uint256"
        }
      ],
      "stateMutability": "view",
      "type": "function"
    },
    {
      "inputs": [
        {
          "internalType": "uint256",
          "name": "tokenId",
          "type": "uint256"
        }
      ],
      "name": "tokenURI",
      "outputs": [
        {
          "internalType": "string",
          "name": "",
          "type": "string"
        }
      ],
      "stateMutability": "view",
      "type": "function"
    },
    {
      "inputs": [],
      "name": "totalSupply",
      "outputs": [
        {
          "internalType": "uint256",
          "name": "",
          "type": "uint256"
        }
      ],
      "stateMutability": "view",
      "type": "function"
    },
    {
      "inputs": [
        {
          "internalType": "address",
          "name": "from",
          "type": "address"
        },
        {
          "internalType": "address",
          "name": "to",
          "type": "address"
        },
        {
          "internalType": "uint256",
          "name": "tokenId",
          "type": "uint256"
        }
      ],
      "name": "transferFrom",
      "outputs": [],
      "stateMutability": "nonpayable",
      "type": "function"
    },
    {
      "inputs": [],
      "name": "unpause",
      "outputs": [],
      "stateMutability": "nonpayable",
      "type": "function"
    }
  ],
  "bytecode": "0x60803462000342576001600160401b0390604090808201838111828210176200032c578252601581526020927f466c697070616e646f204172742047616c6c6572790000000000000000000000848301528251838101818110838211176200032c5784526006815265464c4950414760d01b858201528251908282116200032c5760008054926001958685811c9516801562000321575b898610146200030d578190601f95868111620002ba575b508990868311600114620002565784926200024a575b5050600019600383901b1c191690861b1781555b8151938411620002365784548581811c911680156200022b575b888210146200021757838111620001cf575b508692841160011462000169578394959650926200015d575b5050600019600383901b1c191690821b1781555b600b805460ff19169055600e55600f80546001600160a01b03191633179055516121619081620003488239f35b0151905038806200011c565b9190601f1984169685845280842093905b888210620001b757505083859697106200019d575b505050811b01815562000130565b015160001960f88460031b161c191690553880806200018f565b8087859682949686015181550195019301906200017a565b8582528782208480870160051c8201928a88106200020d575b0160051c019086905b8281106200020157505062000103565b838155018690620001f1565b92508192620001e8565b634e487b7160e01b82526022600452602482fd5b90607f1690620000f1565b634e487b7160e01b81526041600452602490fd5b015190503880620000c3565b8480528a85208994509190601f198416865b8d828210620002a3575050841162000289575b505050811b018155620000d7565b015160001960f88460031b161c191690553880806200027b565b8385015186558c9790950194938401930162000268565b9091508380528984208680850160051c8201928c861062000303575b918a91869594930160051c01915b828110620002f4575050620000ad565b8681558594508a9101620002e4565b92508192620002d6565b634e487b7160e01b83526022600452602483fd5b94607f169462000096565b634e487b7160e01b600052604160045260246000fd5b600080fdfe608060408181526004918236101561001657600080fd5b600092833560e01c91826301ffc9a7146113f65750816306fdde0314611345578163081812fc14611309578163095ea7b31461122c57816318160ddd1461120d57816323b872dd146111f55781632858c55a146111cd5781632f745c59146111a45781633f4ba83a1461112d57816342842e0e146111045781634f6ccce7146110af57816356d5d475146110025781635c975abb14610fde5781636352211e14610fad57816370a0823114610f8057816375794a3c14610f6157816375bd686314610f3857816383fd6f3714610beb5781638456cb5914610b835781638da5cb5b14610b5a57816394c97a0d1461095c57816395d89b41146108715781639ce8ff05146107c4578163a22cb46514610724578163a6f9dae1146106db578163acb4485914610690578163ad0deb891461058d578163b88d4fde14610525578163c78c1dab146104fc578163c87b56dd146104c1578163d5438eae14610494578163df00c1e71461021557508063e985e9c5146101c65763f587d8961461019b57600080fd5b346101c257816003193601126101c257600d5490516001600160a01b039091168152602090f35b5080fd5b50346101c257806003193601126101c2576020916101e26114d5565b826101eb6114eb565b9260018060a01b03809316815260058652209116600052825260ff81600020541690519015158152f35b8383346101c25760c03660031901126101c25782359267ffffffffffffffff926024356044358581116104905761024f90369085016115f9565b9060643586811161048c5761026790369086016115f9565b9560843590811161048c5761027f90369086016115f9565b9160a435916001600160a01b038084168403610487576102a481600f54163314611964565b60105416988915610439578751809a6318160ddd60e01b8252818960209d8e935afa801561042f5782849189906103f8575b6102e09350612042565b1561038057600e54988993895193849384528c840152898301608090526080830161030a91611495565b828103606084015261031b91611495565b037f4451e224eb54b7d8b3e8c2127576d8bec9acbfdc086c5510a389e9792771714491a161034891611c12565b6103529085611e07565b600e5491600019831461036d575050600101600e5551908152f35b634e487b7160e01b825260119052602490fd5b875162461bcd60e51b81528088018b9052604660248201527f496e76616c69642063616e76617320776964746820616e64206865696768742060448201527f666f7220746865206e756d626572206f6620617661696c61626c65206261736960648201526563204e46547360d01b608482015260a490fd5b5050508a81813d8311610428575b6104108183611584565b810103126104245782826102e092516102d6565b8680fd5b503d610406565b89513d89823e3d90fd5b875162461bcd60e51b8152602081890152602260248201527f466c697070616e646f20636f6e74726163742061646472657373206e6f742073604482015261195d60f21b6064820152608490fd5b600080fd5b8380fd5b8280fd5b5050346101c257816003193601126101c257600b54905160089190911c6001600160a01b03168152602090f35b8284346104f95760203660031901126104f957506104e26104f59235611f7d565b9051918291602083526020830190611495565b0390f35b80fd5b5050346101c257816003193601126101c25760105490516001600160a01b039091168152602090f35b8390346101c25760803660031901126101c2576105406114d5565b6105486114eb565b9060643567ffffffffffffffff81116105895736602382011215610589576105869381602461057c933693013591016115c2565b9160443591611a88565b80f35b8480fd5b905034610490576060366003190112610490576105a86114d5565b916105b16114eb565b926044359263ffffffff8416840361048757600d546001600160a01b03939084163303610627575050600b8054610100600160a81b03191660089290921b610100600160a81b0316919091179055600c80546001600160c01b031916919093161760a09190911b63ffffffff60a01b1617905580f35b906020608492519162461bcd60e51b8352820152603b60248201527f4f6e6c79207468652048797065726c616e65206465706c6f79657220636f6e7460448201527f726163742063616e2063616c6c20746869732066756e6374696f6e00000000006064820152fd5b83346104f95760203660031901126104f9576106aa6114d5565b600f546001600160a01b0391906106c49083163314611964565b166001600160601b0360a01b601054161760105580f35b83346104f95760203660031901126104f9576106f56114d5565b600f54906001600160a01b039061070f3383851614611964565b16906001600160601b0360a01b1617600f5580f35b9190503461049057806003193601126104905761073f6114d5565b9060243591821515809303610589576001600160a01b03169283156107af57503384526005602052808420836000526020528060002060ff1981541660ff8416179055519081527f17307eab39ab6107e8899845ad3d59bd9653f200f220920489ca2b5937696c3160203392a380f35b836024925191630b61174360e31b8352820152fd5b905034610490576020366003190112610490576107df6114d5565b600f546001600160a01b0391906107f99083163314611964565b169182156108195750506001600160601b0360a01b600d541617600d5580f35b906020608492519162461bcd60e51b8352820152602c60248201527f4e65772068797065726c616e654465706c6f796572206164647265737320636160448201526b6e6e6f74206265207a65726f60a01b6064820152fd5b8284346104f957806003193601126104f95781519182826001936001549461089886611617565b91828552602096876001821691826000146109355750506001146108d9575b5050506104f592916108ca910385611584565b51928284938452830190611495565b9190869350600183527fb10e2d527612073b26eecdfd717e6a320cf44b4afac2b0732d9fcbe2b7fa0cf65b82841061091d57505050820101816108ca6104f56108b7565b8054848a018601528895508794909301928101610904565b60ff19168782015293151560051b860190930193508492506108ca91506104f590506108b7565b905082346104f957826003193601126104f9578251926024803590843561098287611536565b606087528460208098015261099633611a14565b92600019820190828211610b485780820291808304821490151715610b48578101808211610b48578480821091180284189115610b065783610abd575b6109e08183989798611a4d565b956109ea87611a70565b966109f787519889611584565b808852610a06601f1991611a70565b01368a890137815b838110610a78575050505050815192610a2684611536565b8352848301908152815193858552606085019351938387870152845180915286608087019501915b818110610a645750505083945051908301520390f35b825186529487019491870191600101610a4e565b610a858199989933611904565b610a8f8483611a4d565b8a51811015610aab5760051b8a018b0152969796600101610a0e565b634e487b7160e01b8a5260328452868afd5b8381106109d357845162461bcd60e51b8152808801899052601c818501527f50616765206578636565647320617661696c61626c65206974656d73000000006044820152606490fd5b845162461bcd60e51b8152808801899052601b818501527f50616765206d7573742062652067726561746572207468616e203000000000006044820152606490fd5b634e487b7160e01b8752601188528387fd5b5050346101c257816003193601126101c257600f5490516001600160a01b039091168152602090f35b5050346101c257816003193601126101c25760207f62e78cea01bee320cd4e420270b5ea74000d11b0c9f74754ebdbfc544b05a25891610bce60018060a01b03600f54163314611964565b610bd661210d565b600160ff19600b541617600b5551338152a180f35b91905034610490576020918260031936011261048c578035610c0c81611bd7565b6001600160a01b0394903390861603610f0a57610c2882611f7d565b610c3061210d565b82875260028252858588205416801590811580610ed7575b858a5260028552878a2080546001600160a01b0319169055858a837fddf252ad1be2c89b69c2b068fc378daa952ba7f163c4a11628f55a4df523b3ef8280a48215610e67575050600954848952600a845280878a2055600160401b811015610e545784610cbe826001610cd794016009556119c7565b90919082549060031b91821b91600019901b1916179055565b60095460001990818101908111610e4157858a52600a8552610cfc888b2054916119c7565b90549060031b1c610d1081610cbe846119c7565b8a52600a8552878a205584895288878120556009548015610e2e57810190610d37826119c7565b909182549160031b1b19169055600955610e1857869291610d73610d819287519485933390850152888401526060808401526080830190611495565b03601f198101835282611584565b84600b5460081c16600c5495813b1561048c5783610dd19787519889958694859363fa31de0160e01b855263ffffffff8160a01c168b860152166024840152606060448401526064830190611495565b03925af18015610e0e57610de3578380f35b67ffffffffffffffff8311610dfb5750523880808380f35b634e487b7160e01b845260419052602483fd5b82513d86823e3d90fd5b50506024925191637e27328960e01b8352820152fd5b634e487b7160e01b8a526031875260248afd5b634e487b7160e01b8a526011875260248afd5b634e487b7160e01b895260418652602489fd5b610e72575b50610cd7565b610e7b81611a14565b858a5260088552878a2054918a5260078552878a2091818103610eb5575b50858a5260088552898881205589528352878681205538610e6c565b818b52828652888b2054818c52808a8d20558b5260088652888b205538610e99565b600086815260046020526040902080546001600160a01b0319169055818a5260038552878a208054600019019055610c48565b9050606492519162461bcd60e51b835282015260096024820152682737ba1037bbb732b960b91b6044820152fd5b5050346101c257816003193601126101c257600c5490516001600160a01b039091168152602090f35b5050346101c257816003193601126101c257602090600e549051908152f35b5050346101c25760203660031901126101c257602090610fa6610fa16114d5565b611a14565b9051908152f35b8284346104f95760203660031901126104f95750610fcd60209235611bd7565b90516001600160a01b039091168152f35b5050346101c257816003193601126101c25760209060ff600b541690519015158152f35b839060603660031901126101c257803563ffffffff8116036101c25760443567ffffffffffffffff9182821161048c573660238301121561048c5781013582811161048c5781019060248201913683116105895781606091031261048c5760248101356001600160a01b03811692908390036105895760448201359160648101359485116110ab576110a06110a692602461058697869401016115f9565b93611c12565b611e07565b8580fd5b905034610490576020366003190112610490578035926009548410156110e9576020836110db866119c7565b91905490519160031b1c8152f35b6044939192519263295f44f760e21b84528301526024820152fd5b5050346101c2576105869061111836611501565b9192519261112584611568565b858452611a88565b90503461049057826003193601126104905761115460018060a01b03600f54163314611964565b600b549060ff821615611196575060ff1916600b55513381527f5db9ee0a495bf2e6ff9c91a7834c1ba4fdd244a5e8aa4e537bd38aeae4b073aa90602090a180f35b8251638dfc202b60e01b8152fd5b5050346101c257806003193601126101c257602090610fa66111c46114d5565b60243590611904565b5050346101c257816003193601126101c25760209063ffffffff600c5460a01c169051908152f35b83346104f95761058661120736611501565b91611651565b5050346101c257816003193601126101c2576020906009549051908152f35b919050346104905780600319360112610490576112476114d5565b9160243561125481611bd7565b331515806112f6575b806112cd575b6112b7576001600160a01b039485169482918691167f8c5be1e5ebec7d5bd14f71427d1e84f3dd0314c0f7b2291e5b200ac8c7c3b9258880a48452602052822080546001600160a01b031916909117905580f35b835163a9fbf51f60e01b81523381850152602490fd5b506001600160a01b03811686526005602090815284872033885290528386205460ff1615611263565b506001600160a01b03811633141561125d565b9050346104905760203660031901126104905791826020933561132b81611bd7565b50825283528190205490516001600160a01b039091168152f35b8284346104f957806003193601126104f9578151918282835461136781611617565b908184526020956001918760018216918260001461093557505060011461139b575050506104f592916108ca910385611584565b91908693508280527f290decd9548b62a8d60345a988386fc84ba6bc95484008f6362f93160ef3e5635b8284106113de57505050820101816108ca6104f56108b7565b8054848a0186015288955087949093019281016113c5565b849134610490576020366003190112610490573563ffffffff60e01b8116809103610490576020925063780e9d6360e01b8114908115611438575b5015158152f35b632483248360e11b811491508115611452575b5083611431565b6380ac58cd60e01b811491508115611484575b8115611473575b508361144b565b6301ffc9a760e01b1490508361146c565b635b5e139f60e01b81149150611465565b919082519283825260005b8481106114c1575050826000602080949584010152601f8019910116010190565b6020818301810151848301820152016114a0565b600435906001600160a01b038216820361048757565b602435906001600160a01b038216820361048757565b6060906003190112610487576001600160a01b0390600435828116810361048757916024359081168103610487579060443590565b6040810190811067ffffffffffffffff82111761155257604052565b634e487b7160e01b600052604160045260246000fd5b6020810190811067ffffffffffffffff82111761155257604052565b90601f8019910116810190811067ffffffffffffffff82111761155257604052565b67ffffffffffffffff811161155257601f01601f191660200190565b9291926115ce826115a6565b916115dc6040519384611584565b829481845281830111610487578281602093846000960137010152565b9080601f8301121561048757816020611614933591016115c2565b90565b90600182811c92168015611647575b602083101461163157565b634e487b7160e01b600052602260045260246000fd5b91607f1691611626565b6001600160a01b03828116939184156118eb5761166c61210d565b60009483865260209560028752604096848883205416963315158061185d575b508715801561182a575b84845260038352898420805460010190558784526002835289842080546001600160a01b0319168617905587858a7fddf252ad1be2c89b69c2b068fc378daa952ba7f163c4a11628f55a4df523b3ef8780a4156117be57600954878452600a8352808a852055600160401b8110156117aa5787610cbe82600161171c94016009556119c7565b838803611758575b5050505016928383036117375750505050565b6064945051926364283d7b60e01b8452600484015260248301526044820152fd5b61176190611a14565b6000198101939084116117965782916008918a9452600781528383208584528152878484205587835252205538808080611724565b634e487b7160e01b83526011600452602483fd5b634e487b7160e01b84526041600452602484fd5b87841461171c576117ce88611a14565b878452600883528984205490898552600784528a852091818103611808575b5088855260088452848b81205584528252828981205561171c565b8186528285528b862054818752808d8820558652600885528b862055386117ed565b600088815260046020526040902080546001600160a01b0319169055888452600383528984208054600019019055611696565b806118aa575b1561186e573861168c565b88878961188b576024915190637e27328960e01b82526004820152fd5b905163177e802f60e01b81523360048201526024810191909152604490fd5b5033881480156118cf575b8061186357508683526004825233868a8520541614611863565b5087835260058252888320338452825260ff89842054166118b5565b604051633250574960e11b815260006004820152602490fd5b61190d81611a14565b8210156119395760018060a01b0316600052600760205260406000209060005260205260406000205490565b60405163295f44f760e21b81526001600160a01b039190911660048201526024810191909152604490fd5b1561196b57565b60405162461bcd60e51b815260206004820152602e60248201527f4f6e6c792074686520636f6e7472616374206f776e65722063616e2063616c6c60448201526d103a3434b990333ab731ba34b7b760911b6064820152608490fd5b6009548110156119fe5760096000527f6e1540171b6c0c960b71a7020d9f60077f6af931a8bbf590da0223dacf75c7af0190600090565b634e487b7160e01b600052603260045260246000fd5b6001600160a01b03168015611a3457600052600360205260406000205490565b6040516322718ad960e21b815260006004820152602490fd5b91908203918211611a5a57565b634e487b7160e01b600052601160045260246000fd5b67ffffffffffffffff81116115525760051b60200190565b611a93838383611651565b813b611aa0575b50505050565b604051630a85bd0160e11b8082523360048301526001600160a01b03928316602483015260448201949094526080606482015260209592909116939092908390611aee906084830190611495565b039285816000958187895af1849181611b97575b50611b62575050503d600014611b5a573d611b1c816115a6565b90611b2a6040519283611584565b81528091843d92013e5b80519283611b5557604051633250574960e11b815260048101849052602490fd5b019050fd5b506060611b34565b919450915063ffffffff60e01b1603611b7f575038808080611a9a565b60249060405190633250574960e11b82526004820152fd5b9091508681813d8311611bd0575b611baf8183611584565b8101031261058957516001600160e01b031981168103610589579038611b02565b503d611ba5565b6000818152600260205260409020546001600160a01b0316908115611bfa575090565b60249060405190637e27328960e01b82526004820152fd5b6001600160a01b039080821680156118eb57611c2c61210d565b600093808552602090600282526040948587205416938415948486159687611dd4575b818a5260038652888a2080546001019055848a5260028652888a2080546001600160a01b031916831790558482847fddf252ad1be2c89b69c2b068fc378daa952ba7f163c4a11628f55a4df523b3ef8d80a415611d665750600954838952600a855280888a2055600160401b811015611d525790611cd884610cbe8460018a96016009556119c7565b03611d01575b50505050611cea575050565b6024925051906339e3563760e11b82526004820152fd5b611d0a90611a14565b600019810193908411611d3e5786526007825284862083875282528486208190558552600890528284205538808080611cde565b634e487b7160e01b87526011600452602487fd5b634e487b7160e01b89526041600452602489fd5b90808214611cd857611d7781611a14565b848a5260088652888a205490828b5260078752898b2091818103611db1575b50858b52600887528a8a8120558a5285528888812055611cd8565b818c528288528a8c2054818d528b8d208190558c52600888528a8c205538611d96565b600085815260046020526040902080546001600160a01b0319169055828a5260038652888a208054600019019055611c4f565b91909160009080825260209160068352604081209085519067ffffffffffffffff8211611f6957611e388354611617565b601f8111611f26575b508490601f8311600114611ea257907ff8e1a15aba9398e019f0b49df1a4fde98ee17ae345cb5f6b5e2c27f5033e8ce7969783611e97575b50508160011b916000199060031b1c19161790555b604051908152a1565b015190503880611e79565b9196601f198816848452868420935b818110611f0f57509160019391897ff8e1a15aba9398e019f0b49df1a4fde98ee17ae345cb5f6b5e2c27f5033e8ce7999a9410611ef6575b505050811b019055611e8e565b015160001960f88460031b161c19169055388080611ee9565b929387600181928786015181550195019301611eb1565b838252858220601f840160051c810191878510611f5f575b601f0160051c01905b818110611f545750611e41565b828155600101611f47565b9091508190611f3e565b634e487b7160e01b81526041600452602490fd5b611f8681611bd7565b506000908152602090600682526040812091604051809383908054611faa81611617565b808552916001918083169081156120205750600114611fe3575b505050611fd392500383611584565b604051611fdf81611568565b5290565b86528486209492508591905b818310612008575050611fd39350820101388080611fc4565b85548884018501529485019487945091830191611fef565b92505050611fd394925060ff191682840152151560051b820101388080611fc4565b6032811161206057506002149081612058575090565b600291501490565b6064811161207e57506003149081612076575090565b600391501490565b610190811161209d57506004149081612095575090565b600491501490565b61025881116120bc575060051490816120b4575090565b600591501490565b61032081116120db575060061490816120d3575090565b600691501490565b6103e8106120f85760071490816120f0575090565b600791501490565b6008149081612105575090565b600891501490565b60ff600b541661211957565b60405163d93c066560e01b8152600490fdfea264697066735822122011e2248a6973fc31cc1abf62a53556a51e0adf6fef3ed9bd721902eaa628fd1264736f6c63430008160033",
  "linkReferences": {},
  "deployedLinkReferences": {}
}