{
  "_format": "hh-sol-artifact-1",
  "contractName": "FLIPND",
  "sourceName": "contracts/FLIPND.sol",
  "abi": [
    {
      "inputs": [
        {
          "internalType": "address",
          "name": "_flipBuffer",
          "type": "address"
        }
      ],
      "stateMutability": "nonpayable",
      "type": "constructor"
    },
    {
      "inputs": [
        {
          "internalType": "address",
          "name": "spender",
          "type": "address"
        },
        {
          "internalType": "uint256",
          "name": "allowance",
          "type": "uint256"
        },
        {
          "internalType": "uint256",
          "name": "needed",
          "type": "uint256"
        }
      ],
      "name": "ERC20InsufficientAllowance",
      "type": "error"
    },
    {
      "inputs": [
        {
          "internalType": "address",
          "name": "sender",
          "type": "address"
        },
        {
          "internalType": "uint256",
          "name": "balance",
          "type": "uint256"
        },
        {
          "internalType": "uint256",
          "name": "needed",
          "type": "uint256"
        }
      ],
      "name": "ERC20InsufficientBalance",
      "type": "error"
    },
    {
      "inputs": [
        {
          "internalType": "address",
          "name": "approver",
          "type": "address"
        }
      ],
      "name": "ERC20InvalidApprover",
      "type": "error"
    },
    {
      "inputs": [
        {
          "internalType": "address",
          "name": "receiver",
          "type": "address"
        }
      ],
      "name": "ERC20InvalidReceiver",
      "type": "error"
    },
    {
      "inputs": [
        {
          "internalType": "address",
          "name": "sender",
          "type": "address"
        }
      ],
      "name": "ERC20InvalidSender",
      "type": "error"
    },
    {
      "inputs": [
        {
          "internalType": "address",
          "name": "spender",
          "type": "address"
        }
      ],
      "name": "ERC20InvalidSpender",
      "type": "error"
    },
    {
      "inputs": [],
      "name": "EnforcedPause",
      "type": "error"
    },
    {
      "inputs": [],
      "name": "ExpectedPause",
      "type": "error"
    },
    {
      "anonymous": false,
      "inputs": [
        {
          "indexed": true,
          "internalType": "address",
          "name": "owner",
          "type": "address"
        },
        {
          "indexed": true,
          "internalType": "address",
          "name": "spender",
          "type": "address"
        },
        {
          "indexed": false,
          "internalType": "uint256",
          "name": "value",
          "type": "uint256"
        }
      ],
      "name": "Approval",
      "type": "event"
    },
    {
      "anonymous": false,
      "inputs": [
        {
          "indexed": true,
          "internalType": "address",
          "name": "from",
          "type": "address"
        },
        {
          "indexed": true,
          "internalType": "address",
          "name": "to",
          "type": "address"
        },
        {
          "indexed": false,
          "internalType": "uint256",
          "name": "value",
          "type": "uint256"
        }
      ],
      "name": "FlipTransfer",
      "type": "event"
    },
    {
      "anonymous": false,
      "inputs": [
        {
          "indexed": false,
          "internalType": "address",
          "name": "account",
          "type": "address"
        }
      ],
      "name": "Paused",
      "type": "event"
    },
    {
      "anonymous": false,
      "inputs": [
        {
          "indexed": true,
          "internalType": "address",
          "name": "from",
          "type": "address"
        },
        {
          "indexed": true,
          "internalType": "address",
          "name": "to",
          "type": "address"
        },
        {
          "indexed": false,
          "internalType": "uint256",
          "name": "value",
          "type": "uint256"
        }
      ],
      "name": "Transfer",
      "type": "event"
    },
    {
      "anonymous": false,
      "inputs": [
        {
          "indexed": false,
          "internalType": "address",
          "name": "account",
          "type": "address"
        }
      ],
      "name": "Unpaused",
      "type": "event"
    },
    {
      "inputs": [
        {
          "internalType": "address",
          "name": "owner",
          "type": "address"
        },
        {
          "internalType": "address",
          "name": "spender",
          "type": "address"
        }
      ],
      "name": "allowance",
      "outputs": [
        {
          "internalType": "uint256",
          "name": "",
          "type": "uint256"
        }
      ],
      "stateMutability": "view",
      "type": "function"
    },
    {
      "inputs": [
        {
          "internalType": "address",
          "name": "spender",
          "type": "address"
        },
        {
          "internalType": "uint256",
          "name": "value",
          "type": "uint256"
        }
      ],
      "name": "approve",
      "outputs": [
        {
          "internalType": "bool",
          "name": "",
          "type": "bool"
        }
      ],
      "stateMutability": "nonpayable",
      "type": "function"
    },
    {
      "inputs": [
        {
          "internalType": "address",
          "name": "account",
          "type": "address"
        }
      ],
      "name": "balanceOf",
      "outputs": [
        {
          "internalType": "uint256",
          "name": "",
          "type": "uint256"
        }
      ],
      "stateMutability": "view",
      "type": "function"
    },
    {
      "inputs": [
        {
          "internalType": "address",
          "name": "recipient",
          "type": "address"
        },
        {
          "internalType": "uint256",
          "name": "amount",
          "type": "uint256"
        }
      ],
      "name": "bridgeFLIPND",
      "outputs": [],
      "stateMutability": "nonpayable",
      "type": "function"
    },
    {
      "inputs": [
        {
          "internalType": "address",
          "name": "newOwner",
          "type": "address"
        }
      ],
      "name": "changeOwner",
      "outputs": [],
      "stateMutability": "nonpayable",
      "type": "function"
    },
    {
      "inputs": [],
      "name": "decimals",
      "outputs": [
        {
          "internalType": "uint8",
          "name": "",
          "type": "uint8"
        }
      ],
      "stateMutability": "view",
      "type": "function"
    },
    {
      "inputs": [],
      "name": "destinationContract",
      "outputs": [
        {
          "internalType": "address",
          "name": "",
          "type": "address"
        }
      ],
      "stateMutability": "view",
      "type": "function"
    },
    {
      "inputs": [],
      "name": "destinationDomain",
      "outputs": [
        {
          "internalType": "uint32",
          "name": "",
          "type": "uint32"
        }
      ],
      "stateMutability": "view",
      "type": "function"
    },
    {
      "inputs": [],
      "name": "flipBuffer",
      "outputs": [
        {
          "internalType": "address",
          "name": "",
          "type": "address"
        }
      ],
      "stateMutability": "view",
      "type": "function"
    },
    {
      "inputs": [
        {
          "internalType": "address",
          "name": "user",
          "type": "address"
        }
      ],
      "name": "getTotalLockedBalance",
      "outputs": [
        {
          "internalType": "uint256",
          "name": "total",
          "type": "uint256"
        }
      ],
      "stateMutability": "view",
      "type": "function"
    },
    {
      "inputs": [],
      "name": "getTotalLockedSupply",
      "outputs": [
        {
          "internalType": "uint256",
          "name": "",
          "type": "uint256"
        }
      ],
      "stateMutability": "view",
      "type": "function"
    },
    {
      "inputs": [],
      "name": "getTotalUnlockedSupply",
      "outputs": [
        {
          "internalType": "uint256",
          "name": "",
          "type": "uint256"
        }
      ],
      "stateMutability": "view",
      "type": "function"
    },
    {
      "inputs": [
        {
          "internalType": "uint32",
          "name": "originDomain",
          "type": "uint32"
        },
        {
          "internalType": "bytes32",
          "name": "sender",
          "type": "bytes32"
        },
        {
          "internalType": "bytes",
          "name": "message",
          "type": "bytes"
        }
      ],
      "name": "handle",
      "outputs": [],
      "stateMutability": "payable",
      "type": "function"
    },
    {
      "inputs": [],
      "name": "hyperlaneDeployer",
      "outputs": [
        {
          "internalType": "address",
          "name": "",
          "type": "address"
        }
      ],
      "stateMutability": "view",
      "type": "function"
    },
    {
      "inputs": [
        {
          "internalType": "address",
          "name": "",
          "type": "address"
        },
        {
          "internalType": "uint256",
          "name": "",
          "type": "uint256"
        }
      ],
      "name": "lockedBalanceOf",
      "outputs": [
        {
          "internalType": "uint256",
          "name": "",
          "type": "uint256"
        }
      ],
      "stateMutability": "view",
      "type": "function"
    },
    {
      "inputs": [],
      "name": "lockedSupply",
      "outputs": [
        {
          "internalType": "uint256",
          "name": "",
          "type": "uint256"
        }
      ],
      "stateMutability": "view",
      "type": "function"
    },
    {
      "inputs": [],
      "name": "mailbox",
      "outputs": [
        {
          "internalType": "contract IHyperlaneMailbox",
          "name": "",
          "type": "address"
        }
      ],
      "stateMutability": "view",
      "type": "function"
    },
    {
      "inputs": [
        {
          "internalType": "address",
          "name": "recipient",
          "type": "address"
        },
        {
          "internalType": "uint256",
          "name": "tokenId",
          "type": "uint256"
        },
        {
          "internalType": "uint256",
          "name": "tokenAmount",
          "type": "uint256"
        }
      ],
      "name": "mintLocked",
      "outputs": [],
      "stateMutability": "nonpayable",
      "type": "function"
    },
    {
      "inputs": [],
      "name": "name",
      "outputs": [
        {
          "internalType": "string",
          "name": "",
          "type": "string"
        }
      ],
      "stateMutability": "view",
      "type": "function"
    },
    {
      "inputs": [],
      "name": "owner",
      "outputs": [
        {
          "internalType": "address",
          "name": "",
          "type": "address"
        }
      ],
      "stateMutability": "view",
      "type": "function"
    },
    {
      "inputs": [],
      "name": "pause",
      "outputs": [],
      "stateMutability": "nonpayable",
      "type": "function"
    },
    {
      "inputs": [],
      "name": "paused",
      "outputs": [
        {
          "internalType": "bool",
          "name": "",
          "type": "bool"
        }
      ],
      "stateMutability": "view",
      "type": "function"
    },
    {
      "inputs": [
        {
          "internalType": "address",
          "name": "from",
          "type": "address"
        },
        {
          "internalType": "uint256",
          "name": "tokenId",
          "type": "uint256"
        }
      ],
      "name": "removeLockedTokens",
      "outputs": [],
      "stateMutability": "nonpayable",
      "type": "function"
    },
    {
      "inputs": [
        {
          "internalType": "address",
          "name": "_mailbox",
          "type": "address"
        },
        {
          "internalType": "address",
          "name": "_destinationContract",
          "type": "address"
        },
        {
          "internalType": "uint32",
          "name": "_destinationDomain",
          "type": "uint32"
        }
      ],
      "name": "setHyperlaneConfig",
      "outputs": [],
      "stateMutability": "nonpayable",
      "type": "function"
    },
    {
      "inputs": [
        {
          "internalType": "address",
          "name": "newDeployer",
          "type": "address"
        }
      ],
      "name": "setHyperlaneDeployer",
      "outputs": [],
      "stateMutability": "nonpayable",
      "type": "function"
    },
    {
      "inputs": [],
      "name": "symbol",
      "outputs": [
        {
          "internalType": "string",
          "name": "",
          "type": "string"
        }
      ],
      "stateMutability": "view",
      "type": "function"
    },
    {
      "inputs": [],
      "name": "totalSupply",
      "outputs": [
        {
          "internalType": "uint256",
          "name": "",
          "type": "uint256"
        }
      ],
      "stateMutability": "view",
      "type": "function"
    },
    {
      "inputs": [
        {
          "internalType": "address",
          "name": "to",
          "type": "address"
        },
        {
          "internalType": "uint256",
          "name": "value",
          "type": "uint256"
        }
      ],
      "name": "transfer",
      "outputs": [
        {
          "internalType": "bool",
          "name": "",
          "type": "bool"
        }
      ],
      "stateMutability": "nonpayable",
      "type": "function"
    },
    {
      "inputs": [
        {
          "internalType": "address",
          "name": "from",
          "type": "address"
        },
        {
          "internalType": "address",
          "name": "to",
          "type": "address"
        },
        {
          "internalType": "uint256",
          "name": "value",
          "type": "uint256"
        }
      ],
      "name": "transferFrom",
      "outputs": [
        {
          "internalType": "bool",
          "name": "",
          "type": "bool"
        }
      ],
      "stateMutability": "nonpayable",
      "type": "function"
    },
    {
      "inputs": [
        {
          "internalType": "address",
          "name": "from",
          "type": "address"
        },
        {
          "internalType": "address",
          "name": "to",
          "type": "address"
        },
        {
          "internalType": "uint256",
          "name": "tokenId",
          "type": "uint256"
        }
      ],
      "name": "transferLockedTokens",
      "outputs": [],
      "stateMutability": "nonpayable",
      "type": "function"
    },
    {
      "inputs": [
        {
          "internalType": "address",
          "name": "recipient",
          "type": "address"
        },
        {
          "internalType": "uint256",
          "name": "tokenId",
          "type": "uint256"
        }
      ],
      "name": "unlockAndTransfer",
      "outputs": [],
      "stateMutability": "nonpayable",
      "type": "function"
    },
    {
      "inputs": [],
      "name": "unlockedSupply",
      "outputs": [
        {
          "internalType": "uint256",
          "name": "",
          "type": "uint256"
        }
      ],
      "stateMutability": "view",
      "type": "function"
    },
    {
      "inputs": [],
      "name": "unpause",
      "outputs": [],
      "stateMutability": "nonpayable",
      "type": "function"
    },
    {
      "inputs": [
        {
          "internalType": "address",
          "name": "",
          "type": "address"
        },
        {
          "internalType": "uint256",
          "name": "",
          "type": "uint256"
        }
      ],
      "name": "userTokenIds",
      "outputs": [
        {
          "internalType": "uint256",
          "name": "",
          "type": "uint256"
        }
      ],
      "stateMutability": "view",
      "type": "function"
    }
  ],
  "bytecode": "0x608034620003b9576001600160401b0390601f90601f1962001a47388190038481018316840186811185821017620002bd57849282916040528339602093849181010312620003b957516001600160a01b0381169490859003620003b95762000067620003be565b936009855268466c697070616e646f60b81b8486015262000087620003be565b94600686526511931254139160d21b85870152805191838311620002bd5760039283546001938482811c92168015620003ae575b898310146200039857818484931162000342575b508890848311600114620002df57600092620002d3575b505060001982861b1c191690831b1783555b8651938411620002bd5760049687548381811c91168015620002b2575b888210146200029d5782811162000252575b5086918511600114620001e95784955090849291600095620001dd575b50501b92600019911b1c19161782555b60ff1960055416600555821562000190578260018060a01b03193381600a541617600a55600b541617600b556040516116689081620003df8239f35b60405162461bcd60e51b815291820152602160248201527f466c697042756666657220616464726573732063616e6e6f74206265207a65726044820152606f60f81b606482015260849150fd5b01519350388062000144565b9291948416928760005284876000209460005b89898383106200023a57505050106200021f575b50505050811b01825562000154565b01519060f884600019921b161c191690553880808062000210565b868601518955909701969485019488935001620001fc565b88600052876000208380880160051c8201928a891062000293575b0160051c019084905b8281106200028657505062000127565b6000815501849062000276565b925081926200026d565b602289634e487b7160e01b6000525260246000fd5b90607f169062000115565b634e487b7160e01b600052604160045260246000fd5b015190503880620000e6565b908886941691876000528a6000209260005b8c8282106200032b575050841162000312575b505050811b018355620000f8565b015160001983881b60f8161c1916905538808062000304565b8385015186558997909501949384019301620002f1565b90915085600052886000208480850160051c8201928b86106200038e575b918791869594930160051c01915b8281106200037e575050620000cf565b600081558594508791016200036e565b9250819262000360565b634e487b7160e01b600052602260045260246000fd5b91607f1691620000bb565b600080fd5b60408051919082016001600160401b03811183821017620002bd5760405256fe608060408181526004918236101561001657600080fd5b600092833560e01c91826306fdde03146110e557508163095ea7b31461103b57816318160ddd1461101c57816323b872dd14610f3b5781632858c55a14610f13578163313ce56714610ef757816336175052146104c95781633e03fdc114610d1b5781633f4ba83a14610ca4578163416f5fb014610c4057816353c8729614610c2157816356d5d47514610b995781635c975abb14610b755781636deb959714610b4c57816370a0823114610b1557816375bd686314610aec5781638456cb5914610a845781638778f590146109855781638da5cb5b1461095c5781638ef4c8071461091b57816395d89b41146107fe5781639ce8ff051461074e578163a6f9dae1146106ba578163a9059cbb14610689578163ad0deb8914610587578163c2fb97f8146104e8578163ca5c7b91146104c9578163cc17e15d14610473578163d5438eae1461044a578163dc5fb000146102c157508063dd62ed3e14610274578063f1001f8c146101e4578063f587d896146101bc5763fd3d27b81461019b57600080fd5b346101b857816003193601126101b8576020906007549051908152f35b5080fd5b50346101b857816003193601126101b857600e5490516001600160a01b039091168152602090f35b509034610271576020806003193601126101b857610200611219565b6001600160a01b03168083526009602052838320805484939092849291905b848610610230576020878951908152f35b909192939495610265600191838752600885528987206102508a8861127a565b90549060031b1c8852855289872054906113a3565b9601949392919061021f565b80fd5b50346101b857806003193601126101b857602091610290611219565b8261029961122f565b6001600160a01b03928316845260018652922091166000908152908352819020549051908152f35b8383346101b857806003193601126101b8576102db611219565b602435906102e7611614565b600a546001600160a01b03919061030190831633146112e0565b8181169182865260209260088452858720858852845285872054156104075780875260088452858720858852845285872054948188526008855286882081895285526000878920556006548681039081116103f257600655610365866007546113a3565b60075561037286856115b6565b8560031b868104600814871517156103df578899509060646103a69299989904946103a18686600b54166115b6565b6114e7565b86519485527f66ff8ed68d0ffb2dd2f4629ab92ab9673cd8b71b251cc673c1afe3030e62b95b9485853092a3600b54169451908152a380f35b634e487b7160e01b895260118a52602489fd5b60118a634e487b7160e01b6000525260246000fd5b855162461bcd60e51b8152808901859052601d60248201527f4e6f206c6f636b65642062616c616e636520666f7220746f6b656e49640000006044820152606490fd5b5050346101b857816003193601126101b857600c5490516001600160a01b039091168152602090f35b5050346101b857806003193601126101b85761048d611219565b6001600160a01b0316825260096020528082208054602435939084101561027157506020926104bb9161127a565b91905490519160031b1c8152f35b5050346101b857816003193601126101b8576020906006549051908152f35b5050346101b8576009610584916104fe36611245565b939190610509611614565b600a546001600160a01b039061052290821633146112e0565b808316918289526105658760209560088752888c20828d528752888c20549561054c871515611343565b8c5260088752888c20828d5287526000898d20556114e7565b16908188526008835284882086895283528488205586525283206113c6565b80f35b905034610685576060366003190112610685576105a2611219565b916105ab61122f565b926044359263ffffffff8416840361068057600e546001600160a01b0393908416330361061757505081166bffffffffffffffffffffffff60a01b600c541617600c55600d549163ffffffff60a01b9060a01b1692169067ffffffffffffffff60c01b161717600d5580f35b906020608492519162461bcd60e51b8352820152603b60248201527f4f6e6c79207468652048797065726c616e65206465706c6f79657220636f6e7460448201527f726163742063616e2063616c6c20746869732066756e6374696f6e00000000006064820152fd5b600080fd5b8280fd5b5050346101b857806003193601126101b8576020906106b36106a9611219565b6024359033611409565b5160018152f35b905034610685576020366003190112610685576106d5611219565b600a5491906001600160a01b03906106f033838616146112e0565b1692831561070b5750506001600160a01b03191617600a5580f35b906020606492519162461bcd60e51b8352820152602060248201527f4e6577206f776e657220616464726573732063616e6e6f74206265207a65726f6044820152fd5b90503461068557602036600319011261068557610769611219565b600a546001600160a01b03919061078390831633146112e0565b169182156107a85750506bffffffffffffffffffffffff60a01b600e541617600e5580f35b906020608492519162461bcd60e51b8352820152602a60248201527f4e65772068797065726c614465706c6f79657220616464726573732063616e6e6044820152696f74206265207a65726f60b01b6064820152fd5b8284346102715780600319360112610271578151918184549260018460011c9160018616958615610911575b60209687851081146108fe579087899a92868b999a9b5291826000146108d4575050600114610879575b858861087589610866848a03856112a8565b519282849384528301906111d9565b0390f35b815286935091907f8a35acfbc15ff81a39ae7d344fd709f28e8600b4aa8c65c6b64bfe7fe36bd19b5b8284106108bc575050508201018161086661087588610854565b8054848a0186015288955087949093019281016108a2565b60ff19168882015294151560051b8701909401945085935061086692506108759150899050610854565b634e487b7160e01b835260228a52602483fd5b92607f169261082a565b5050346101b857806003193601126101b85760209181906001600160a01b03610942611219565b168152600884528181206024358252845220549051908152f35b5050346101b857816003193601126101b857600a5490516001600160a01b039091168152602090f35b905034610685576060366003190112610685576109a0611219565b60243591604435916109b0611614565b600a546001600160a01b0392906109ca90841633146112e0565b670de0b6b3a764000093848102948186041490151715610a6f5750918593917f66ff8ed68d0ffb2dd2f4629ab92ab9673cd8b71b251cc673c1afe3030e62b95b9316948585526020926008845281862081875284528282872055610a30836006546113a3565b600655868652600884528186208187528452828287205414610a56575b5051908152a380f35b610a6990878752600985528287206113c6565b38610a4d565b601190634e487b7160e01b6000525260246000fd5b5050346101b857816003193601126101b85760207f62e78cea01bee320cd4e420270b5ea74000d11b0c9f74754ebdbfc544b05a25891610acf60018060a01b03600a541633146112e0565b610ad7611614565b600160ff19600554161760055551338152a180f35b5050346101b857816003193601126101b857600d5490516001600160a01b039091168152602090f35b5050346101b85760203660031901126101b85760209181906001600160a01b03610b3d611219565b16815280845220549051908152f35b5050346101b857816003193601126101b857600b5490516001600160a01b039091168152602090f35b5050346101b857816003193601126101b85760209060ff6005541690519015158152f35b919050606036600319011261068557813563ffffffff811603610680576044359167ffffffffffffffff90818411610c1d5736602385011215610c1d57830135908111610c19578201366024820111610c1957829003126101b85760248101356001600160a01b03811690819003610685576044610584920135906115b6565b8380fd5b8480fd5b5050346101b857816003193601126101b8576020906007549051908152f35b5050346101b857806003193601126101b85761058490610c5e611219565b60006024359260018060a01b0383168087526008602052818720858852602052610c8c828820541515611343565b865260086020528086208487526020528520556114e7565b905034610685578260031936011261068557610ccb60018060a01b03600a541633146112e0565b6005549060ff821615610d0d575060ff1916600555513381527f5db9ee0a495bf2e6ff9c91a7834c1ba4fdd244a5e8aa4e537bd38aeae4b073aa90602090a180f35b8251638dfc202b60e01b8152fd5b91905034610685578060031936011261068557610d36611219565b9160243592338552602093858552808487205410610ec0573315610ea95733865285855283862054818110610e7f578190338852878752038487205580600254036002558584518281527fddf252ad1be2c89b69c2b068fc378daa952ba7f163c4a11628f55a4df523b3ef873392a383516001600160a01b039283169581019590955284840152828452606084019367ffffffffffffffff8511918186108317610e6c5790869186865280600c541690600d54823b15610c1d5763fa31de0160e01b895260a081901c63ffffffff166064850152166084830152606060a4830152869182908490605f1990610e2e60c48201826111d9565b0301925af18015610e6257610e41578480f35b610e4f575052388080808480f35b634e487b7160e01b845260419052602483fd5b83513d87823e3d90fd5b634e487b7160e01b875260418452602487fd5b935163391434e360e21b815233938101938452602084019490945260408301525081906060010390fd5b8351634b637e8f60e11b8152808401879052602490fd5b835162461bcd60e51b815280840186905260116024820152704e6f7420656e6f75676820746f6b656e7360781b6044820152606490fd5b5050346101b857816003193601126101b8576020905160128152f35b5050346101b857816003193601126101b85760209063ffffffff600d5460a01c169051908152f35b839150346101b857610f4c36611245565b6001600160a01b03831680865260016020908152878720338852905286862054919592946000198310610f88575b6020886106b3898989611409565b868310610ff0578115610fd9573315610fc2575082526001602090815286832033845281529186902090859003905582906106b387610f7a565b8751634a1406b160e11b8152908101849052602490fd5b875163e602df0560e01b8152908101849052602490fd5b8751637dc7a0d960e11b8152339181019182526020820193909352604081018790528291506060010390fd5b5050346101b857816003193601126101b8576020906002549051908152f35b905034610685578160031936011261068557611055611219565b6024359033156110ce576001600160a01b03169182156110b757508083602095338152600187528181208582528752205582519081527f8c5be1e5ebec7d5bd14f71427d1e84f3dd0314c0f7b2291e5b200ac8c7c3b925843392a35160018152f35b8351634a1406b160e11b8152908101859052602490fd5b835163e602df0560e01b8152808401869052602490fd5b8484346101b857816003193601126101b857816003549260018460011c91600186169586156111cf575b60209687851081146108fe578899509688969785829a5291826000146111a857505060011461114c575b50505061087592916108669103856112a8565b9190869350600383527fc2575a0e9e593c00f959f8c92f12db2869c3395a3b0502d05e2516446f71f85b5b8284106111905750505082010181610866610875611139565b8054848a018601528895508794909301928101611177565b60ff19168782015293151560051b8601909301935084925061086691506108759050611139565b92607f169261110f565b919082519283825260005b848110611205575050826000602080949584010152601f8019910116010190565b6020818301810151848301820152016111e4565b600435906001600160a01b038216820361068057565b602435906001600160a01b038216820361068057565b6060906003190112610680576001600160a01b0390600435828116810361068057916024359081168103610680579060443590565b80548210156112925760005260206000200190600090565b634e487b7160e01b600052603260045260246000fd5b90601f8019910116810190811067ffffffffffffffff8211176112ca57604052565b634e487b7160e01b600052604160045260246000fd5b156112e757565b60405162461bcd60e51b815260206004820152602e60248201527f4f6e6c792074686520636f6e7472616374206f776e65722063616e2063616c6c60448201526d103a3434b990333ab731ba34b7b760911b6064820152608490fd5b1561134a57565b60405162461bcd60e51b815260206004820152602b60248201527f4e6f206c6f636b656420746f6b656e7320666f72207468697320746f6b656e4960448201526a321030b7321037bbb732b960a91b6064820152608490fd5b919082018092116113b057565b634e487b7160e01b600052601160045260246000fd5b90815491680100000000000000008310156112ca57826113ee9160016114079501815561127a565b90919082549060031b91821b91600019901b1916179055565b565b916001600160a01b038084169283156114ce57169283156114b55760009083825281602052604082205490838210611483575091604082827fddf252ad1be2c89b69c2b068fc378daa952ba7f163c4a11628f55a4df523b3ef958760209652828652038282205586815220818154019055604051908152a3565b60405163391434e360e21b81526001600160a01b03919091166004820152602481019190915260448101839052606490fd5b60405163ec442f0560e01b815260006004820152602490fd5b604051634b637e8f60e11b815260006004820152602490fd5b6001600160a01b03166000908152600960205260408120909190825b8154808210156115af578390611519838561127a565b929054600393841b1c14611531575050600101611503565b92935093906000199283810190811161159b57906113ee611555611562938761127a565b905490881b1c918661127a565b82549081156115875750810192611579848461127a565b81939154921b1b1916905555565b634e487b7160e01b81526031600452602490fd5b634e487b7160e01b83526011600452602483fd5b5050505050565b6001600160a01b03169081156114b5577fddf252ad1be2c89b69c2b068fc378daa952ba7f163c4a11628f55a4df523b3ef6020826115f86000946002546113a3565b60025584845283825260408420818154019055604051908152a3565b60ff6005541661162057565b60405163d93c066560e01b8152600490fdfea26469706673582212209204aef30774fab1eb1b0cc4ae422e4e500a79173fe6cb4612e8c38590c46b1e64736f6c63430008160033",
  "linkReferences": {},
  "deployedLinkReferences": {}
}